:020000042000DA
:08000000C006002009000020E9
:10000800094A0A4B03E052F8041B43F8041B084949
:100018008B42F8D3074B02E0002243F8042B064A30
:100028009342F9D300F03CB8480600204806002067
:0C0038004806002020060020480600209A
:10004400032A70B404460D4626D941EA000313F08E
:10005400030F13D020782B78984208BF294606D086
:100064001EE014F8010F11F8013F984218D1012A3B
:1000740002F1FF32F5D1002070BC70470B460446F4
:1000840051F8045B50F8046BAE4204D1043A0446C0
:10009400032A0B46F2D81D461046002ADAD1EBE7B4
:0400A400C01AE9E7AE
:1000A800F8B500F0B9F8534A0023137013711372AE
:1000B8001361536102F8043C01E000F0ADF84E4BC7
:1000C8001B78022BF9D14B4C00274C4B27701B781F
:1000D800082B19D006D8042B74D0052B75D0032B08
:1000E8007DD11CE00B2B08D002D8092B77D10FE06B
:1000F8000C2B6DD01E2B72D110E0414B186859683B
:100108001A6900F08AF801E000F0B8F8207069E098
:100118003B4B1868596800F0F1F8F7E70127394BAD
:1001280000241D6844E0D3F800E0374916680EF152
:10013800010E0868C6EB0E06864201D90E6803E078
:100148001E6813680136F61A14B108E000F064F866
:100158002E4B1B78012BF9D105E000F05DF82C4BF4
:100168001B78012BF9D1264A731E37B11068116824
:100178002A46C91800F077F805E0106811682A4681
:10018800C91800F0BDF81B4B18701A4B1B781A469B
:1001980073B924B91D4B1C701D6A013404E01C4955
:1001A80014460B70174B1D68154B1A6896191E607C
:1001B800104B1B78B3B9124A164B1068196888425D
:1001C800B1D90FE000F010F9A0E700F00FF99DE7B2
:1001D8000B4B186859681A6900F034F896E7054B14
:1001E80001221A70034B1A78043B02B101221A70DB
:1001F80065E700BFC4060020C0060020D006002026
:10020800D4060020E4060020E0060020C8060020EE
:08021800CC060020D8060020EE
:02022000704725
:10022200884210B50DD81AB90DE08842034605D8A8
:10023200034650F8044BB4F1FF3FF6D013600020A0
:0A02420010BD022010BD022010BD07
:10024C00884210B509D852B1002350F8044B8842AB
:10025C002344FAD91360002010BD022010BD0220E7
:02026C0010BDC3
:10026E0008B50B1A11465A1CFFF7E5FE002814BFFD
:06027E008220002008BDF3
:1002840010B51A4C207828B90146024600F0B2F89D
:1002940001232370164B174A1B68126804E053F8B5
:1002A400041BB1F1FF3F1CD19342F8D3124B1868E1
:1002B400124B02461968002305E052F8044BB4F1CE
:1002C400FF3F18BF01238A42F7D3012B02D100F06C
:1002D40029F940B900F046F9002814BF8220002013
:1002E40010BD852010BD822010BD00BF2006002057
:1002F40028060020300600203406002024060020B2
:04030400032070471B
:10030800F8B5304F044638780D46164628B90146E8
:10031800024600F06DF801233B702B4B2B4A1B68FB
:10032800126804E053F8041BB1F1FF3F41D1934236
:10033800F8D3274B1B689C420FD8291B2046013154
:10034800324600F051F940B1224BD86900F0020062
:1003580000280CBF82208720F8BD1F4B9C4217D174
:10036800002305E054F8042BB2F1FF3F18BF012326
:10037800A542F7D8012B03D1174800F0D1F8D0B91E
:10038800164915486918324600F02EF9B8B112E03E
:10039800134B9C4202D0134B9C420ED1291B204682
:1003A8000131324600F020F9002814BF82200020D5
:1003B800F8BD8620F8BD8220F8BD0020F8BD0020D9
:1003C800F8BD00BF200600202806002030060020C7
:1003D8003C06002000000C400040E00F01C01FF068
:0803E800F441E00FF447E00FBF
:0403F000032070472F
:0403F400032070472B
:1003F8003B4B41F671322DE9F041DA63394B3A4A09
:100408009C6C3A49A4B214609D6C394F2D0C0D6058
:10041800D86C384E00F47F00000C3860DB6CDFF8D5
:10042800FCC01B0E33609CF800C04FF002080CF1B2
:100438000A0C0CF0FF0C0CF1FF3C08FA0CFCA5426E
:1004480084BF15600C6014682B4BA4024728146005
:10045800C3F800C0294D2A4C01D0492801D12948A8
:1004680000E0294828600B3020603068112822D825
:100478003C68473C052C15D8DFE804F00B031A0844
:1004880008110C2802D94FF4805113E04FF4006191
:1004980010E003280CD84FF40060086008E04FF41F
:1004A800806107E04FF40060086040F2014111608C
:1004B8004FF40071196012681B681449B2FBF3F21B
:1004C800134B92081960134B0020D318124A13607B
:1004D800034B9A6842F001029A60BDE8F08100BFC0
:1004E80000000C40B081E00F3C06002044060020CC
:1004F80040060020380600202C0600202806002090
:1005080030060020F441E00FF447E00F0040E00F10
:1005180034060020FF3FE00F24060020E781E00FAB
:100528000D4B01221861DA609218DA600B4800E07E
:100538000138094BDA6912F0010F01D00028F7D110
:10054800DB6913F0020F04D1D0F1010038BF00209D
:1005580070470120704700BF00000C40809698004B
:1005680010B5002406E02046FFF7DAFF40B9054B36
:100578001B68E418044B1B689C42F4D3002010BD90
:0C058800012010BD2C0600203C060020C5
:10059400144B18610120D860DA6912F0040F03D1FA
:1005A400DA6912F0080F04D19A6822F001029A6005
:1005B4007047082299610C48DA6000E00138094B61
:1005C400DA6912F0010F01D00028F7D1DB6913F0CA
:1005D400020F04D1D0F1010038BF00207047012080
:0C05E400704700BF00000C40809698009B
:1005F000F8B5044610F003000D4617460DD1064627
:1006000004E0B9591846FFF7C5FF0436AE4206EBC1
:0E061000040303D20028F4D0F8BD0120F8BD89
:040000052000004493
:00000001FF
