:020000042000DA
:0C00000001480047704700000D00002080
:10000C002DE9F84F00F09AF940F60403C2F2000310
:10001C0018701B783BB940F60003C2F200034FF096
:10002C0000021A7006E040F60003C2F200034FF023
:10003C0001021A7040F60802C2F200024FF00003EF
:10004C00137040F60C02C2F20002137040F6140258
:10005C00C2F20002136040F61802C2F200021360F2
:10006C0040F62003C2F200034FF400521A6040F62F
:10007C002403C2F2000341F20002C2F200021A6031
:10008C0040F62803C2F2000343F20002C2F200025F
:10009C001A6040F6000AC2F2000A40F60805C2F2E5
:1000AC00000540F60C04C2F2000401E000F04AF92D
:1000BC009AF80030022BF9D140F60403C2F2000387
:1000CC004FF000021A7040F61003C2F200031B78C6
:1000DC00A3F10303092B00F2DE80DFE813F03B00F1
:1000EC00B500BD00DC00DC0021002900DC000A00AA
:1000FC00C50040F61403C2F20003186840F618035A
:10010C00C2F20003196840F62403C2F200031A6815
:10011C0000F0D8F840F60403C2F200031870C1E0F6
:10012C0000F016F940F60403C2F200031870B9E0AF
:10013C0040F61403C2F20003186840F61803C2F22A
:10014C000003196800F000F940F60403C2F2000342
:10015C001870A7E040F62403C2F20003D3F800B0F5
:10016C004FF0000940F60407C2F2000740F61406EF
:10017C00C2F200065CE040F61803C2F200031A68F3
:10018C00316840F62003C2F200031B6802F1010241
:10019C00C1EB02029A4283BF40F62003C2F2000375
:1001AC00D3F8008040F618039FBFC2F200031A6810
:1001BC00336802F1010898BFC3EB0808B9F1000FCE
:1001CC0003D02378012B09D10DE02B78012B0AD019
:1001DC0000F0B8F82B78012BFAD104E000F0B2F85B
:1001EC002378012BFAD13068316808F1FF331944B8
:1001FC005A4600F0BFF838703B78CBB9B9F1000F14
:10020C0009D12B7040F62803C2F20003D3F800B0DA
:10021C004FF0010909E04FF0000984F8009040F616
:10022C002403C2F20003D3F800B0336843443360B4
:10023C003B78002B36D1326840F61803C2F200032B
:10024C001B689A4297D92DE000F0EAF840F60403B7
:10025C00C2F20003187025E000F0E6F840F6040343
:10026C00C2F2000318701DE040F61403C2F2000342
:10027C00186840F61803C2F20003196840F624030C
:10028C00C2F200031A6800F03DF840F60403C2F213
:10029C000003187006E040F60403C2F200034FF0AE
:1002AC0001021A7040F60403C2F200031B7823B15A
:1002BC004FF001038AF80030FAE64FF000038AF899
:0402CC000030F5E623
:1002D0001346D2F1010238BF0022884288BF42F0A3
:1002E000010212B14FF00200704788420BD8026839
:1002F000B2F1FF3F07D100F10400814203D302684D
:10030000B2F1FF3FF7D018604FF00000704700BF18
:1003100010B41346D2F1010238BF0022884288BFD0
:1003200042F0010212B14FF002000BE088424FF0A0
:10033000000204D850F8044B22448142FAD21A60D9
:080340004FF0000010BC7047F3
:080348004FF00000704700BFF8
:04035000704700BF33
:080354004FF00000704700BFEC
:10035C004DF20803C4F20F0340F20402CAF2424207
:10036C001A601A46136813F0020FFBD14FF000000D
:04037C00704700BF07
:10038000F0B488424ED84DF20806C4F20F064DF282
:10039000001CC4F20F0C4DF22007C4F20F070446F4
:1003A00010F07F0F24D101F10103C0EB03037F2B79
:1003B0001EDD4DF20003C4F20F0318604FF000037E
:1003C00003EB0C0403EB02052D68256003F1040325
:1003D000802BF5D140F20103CAF242433B603B68F7
:1003E00013F0010FFBD100F1800002F1800217E051
:1003F00015684DF20403C4F20F031D604DF20003B3
:10040000C4F20F031C6040F20103CAF2424333609E
:10041000336813F0010FFBD100F1040002F1040274
:0C0420008142BCD24FF00000F0BC7047DD
:08042C004FF00300704700BF10
:080434004FF00300704700BF08
:0400000520000000D7
:00000001FF
