:020000042000DA
:0C00000001480047704700000D00002080
:10000C002DE9F84F00F07EF940F60403C2F200032C
:10001C0018701B783BB940F60003C2F200034FF096
:10002C0000021A7006E040F60003C2F200034FF023
:10003C0001021A7040F60803C2F200034FF00002EE
:10004C001A7040F60C03C2F200031A7040F6140347
:10005C00C2F200031A6040F61803C2F200031A60E1
:10006C0040F60003C2F200039B4640F60803C2F2BE
:10007C000003984640F60C031F46C2F2000701E04D
:10008C0000F044F99BF80030022BF9D140F6040340
:10009C00C2F200034FF000021A7040F61003C2F2D5
:1000AC0000031B78A3F10303092B00F2D480DFE8D3
:1000BC0013F00A00AC00B400D200D20031003900B9
:1000CC00D2001B00BC004FF0000A41F20006C2F245
:1000DC00000640F60403C2F20003994640F61403EE
:1000EC001C46C2F2000483E040F61403C2F2000383
:1000FC00186840F61803C2F20003196841F20002B6
:10010C00C2F2000200F0BEF840F60403C2F2000393
:10011C001870A7E000F000F940F60403C2F20003E7
:10012C0018709FE040F61403C2F20003186840F602
:10013C001803C2F20003196800F0EAF840F6040351
:10014C00C2F2000318708DE040F61803C2F20003EF
:10015C001B68226803F10103C2EB0303B3F5805F54
:10016C00CFBF4FF4805540F61803C2F200031B6852
:10017C00DEBF22680133C2EB0305BAF1000F03D0D6
:10018C003B78012B0BD10FE098F80030012B0BD0F2
:10019C0000F0BCF898F80030012BF9D104E000F025
:1001AC00B5F83B78012BFAD12068236805F1FF31B3
:1001BC001944324600F0C6F889F8000099F800306E
:1001CC00B3B9BAF1000F08D188F800300AF1010A6E
:1001DC0042F20006C2F2000607E04FF000033B704B
:1001EC009A4641F20006C2F2000623682B442360B3
:1001FC0099F80030002B35D1236840F61802C2F272
:10020C000002126893429FD92CE000F0D1F840F61E
:10021C000403C2F20003187024E000F0CDF840F69D
:10022C000403C2F2000318701CE040F61403C2F27F
:10023C000003186840F61803C2F20003196841F273
:10024C000002C2F2000200F03FF840F60403C2F2D2
:10025C000003187006E040F60403C2F200034FF0EE
:10026C0001021A7040F60403C2F200031B7823B19A
:10027C004FF001038BF8003004E74FF000038BF8CC
:04028C000030FFE659
:1002900010B4884294BF002301231446002A14BFDF
:1002A0001A4643F0010212B14FF002000FE05BB9B1
:1002B0000368B3F1FF3F07D100F10400814203D38B
:1002C0000368B3F1FF3FF7D020604FF0000010BC8F
:0402D0007047C0466D
:1002D40010B41446D2F1010238BF0022884288BF0C
:1002E40042F0010212B14FF002000DE0884288BFD3
:1002F400002206D84FF0000250F8043B1A44814211
:0C030400FAD222604FF0000010BC7047DD
:080310004FF000007047C046E9
:040318007047C04624
:08031C004FF000007047C046DD
:100324004DF20802C4F20F0240F20403CAF242433F
:1003340013604DF208010A46C4F20F02136813F069
:0C034400020FFBD14FF000007047C046D4
:100350002DE9F00F82B08C46884229D8C0EB020309
:1003600000EB03014DF2040B5E46C4F20F064DF2A2
:10037000000A5546C4F20F054DF208073A46C4F28A
:100380000F0240F201094B46CAF2424398461C460E
:10039000019700920B68336028601460136813F0B3
:1003A000010FFBD100F1040001F104018445F1D2F9
:0C03B0004FF0000002B0BDE8F00F7047F5
:0803BC004FF003007047C0463A
:0803C4004FF003007047C04632
:0400000520000000D7
:00000001FF
