:020000041000EA
:0C00000001480047704700000D00001090
:10000C002DE9F04100F0FEF8544B18701B781A469D
:10001C0003B10122524B1A70524B00221A70043356
:10002C001A7008331A6004331A6002F50072083330
:10003C001A604D4A04331A6002F5007204331A60D8
:10004C0001E000F0F1F8464B1B78022BF9D1434B41
:10005C0000221A700C331B78033B092B72D8DFE893
:10006C0003F01A626571710E137105683F4B1868C5
:10007C00043319680C331A6800F08CF801E000F0B6
:10008C0001F9364B187060E0384B18680433196866
:10009C0000F0CCF8F5E7364B00261F6839E0036812
:1000AC00344D216801332A685B1A934201D92C68BC
:1000BC0003E00368226801339C1A16B108E000F0D3
:1000CC00B3F8284B1B78012BF9D105E000F0ACF804
:1000DC00294B1B78012BF9D1244B611E18681B6826
:1000EC003A46591800F0FEF81C4B18701B781A464B
:1000FC007BB92EB91B4B1E7020331F68013604E0F0
:10010C001D4B16461A7018331F68184A13681B19B2
:10011C001360124B1B78C3B9144C1848226803683F
:10012C009A42BCD911E000F065F9AAE700F064F935
:10013C00A7E70E4B1868043319680C331A6800F0E3
:10014C0051F89EE7054B01221A70044B1B781A4696
:10015C0003B10122024B1A7075E7C046C4070010A8
:10016C00C0070010C807001000080010D4070010CA
:10017C00E4070010E0070010CC070010D8070010AF
:10018C00B0F5803F01D2000B02E0C30B03F10E006F
:04019C007047C046A2
:1001A00030B581428BB00C4615461AD3CAB13523FF
:1001B0000593FFF7EBFF06902046FFF7E7FF694640
:1001C00007900A4B05A89847009838B1082803D132
:1001D000019B00202B6005E0833003E0631C2B6053
:1001E00000E00220C0B20BB030BDC046F11FFF1FBF
:1001F000884210B5144609D842B1002250F8043B99
:10020000D2188842FAD92260002000E0022010BDF6
:10021000054B0020054A1870012310701370044B21
:1002200002221A707047C0467080044074800440F7
:040230000080044006
:040234007047C04609
:1002380030B5002387B00C460593FFF7A3FF0546AA
:100248002046FFF79FFF3223009302900D4B044690
:100258000195684605A99847059B13B113F18300DA
:100268000DD1342300934FF47A63039368460195C4
:10027800029405A9034B9847059800B18330C0B292
:0802880007B030BDF11FFF1F9C
:100290007FB5362306A840F8043D6946134B9847BE
:1002A000009B1BB113F183001AD115E0029B03F0F0
:1002B000F003102B07D001D8ABB10AE0402B12D0CD
:1002C000502B06D102E043F6FF7106E041F6FF71C4
:1002D00003E04FF0FF3100E001460020FFF7ACFFE4
:1002E000C0B207B000BD47F6FF71F6E7F11FFF1F70
:1002F0002DE9F041002386B0059301F10103074683
:10030000884615461C1A06460FE006F57E61304603
:100310001F312A46FFF7ECFF0346002855D106F5AA
:10032000805605F58055A4F58054B4F5805FECD86F
:1003300015D0B4F5807F0FD811E0304606F1FF01EB
:100340002A46FFF7D5FF034600283ED106F5807602
:1003500005F58075A4F58074B4F5807FEDD8FF2C89
:1003600037D814F0030F04D04FF0FF332B5501346E
:10037000F5E74FF0FF332B510434F0E7B8F16F0F7E
:1003800029D9AA686B689B182A689B18EA689B1889
:100390002A699B186A699B18AA699B185B42EB61E2
:1003A00019E0833311D1332300934FF47A6304931C
:1003B000684601960295039405A9104B9847059845
:1003C00008B9034601E000F18303D8B206B0BDE8E6
:1003D000F081002ED2D0322338460093FFF7D6FEAC
:1003E00001904046FFF7D2FE044B029005A96846F3
:1003F0009847059B002BD4D1D5E7C046F11FFF1FBE
:04040000032070471E
:04040400032070471A
:0400000510000000E7
:00000001FF
