:020000041000EA
:08000000C01B001009000010F4
:1000080010B5144A144B9A420ED2144B124A0332BA
:10001800D21A92080132920000230E481049CC5897
:10002800C45004339342FAD10E4A0F4B9A420ED26F
:100038000E4B0D490331C91A890801318900002383
:10004800140000201A19106004338B42FAD100F012
:10005800B7F810BDE8030010E8030010EC03001027
:10006800E8030010A0030010C0030010A403001050
:1000780010B5114C32232360002363601F33A36043
:100088002100143120000D4B984763690120002B93
:1000980010D1094C34332360002363601F33A360FD
:1000A800074BE360210014312000044B9847606936
:1000B800431E984110BDC046A0030010F11FFF1F4A
:1000C800E02E000070B506000D00002814D10B6862
:1000D8004A68944663448A6894466344CA68944666
:1000E80063440A69944663444A69944663448A6946
:1000F800944663445B42CB61114C32232360002356
:1001080063601F33A3602100143120000D4B984712
:1001180063690120002B11D1094C333323606660D9
:10012800A560CE33FF33E360074B23612100143110
:100138002000044B98476069431E984170BDC04633
:10014800A0030010F11FFF1FE02E000002238842C9
:100158000ED8002A0BD00368013305D10430814240
:1001680002D303680133F9D01060002300E00223B2
:10017800D8B2704710B5022388420AD8002A07D09F
:10018800002310C81B198142FBD21360002300E032
:100198000223D8B210BDC0467047C0460020704741
:1001A80010B5FFF765FFC0B210BDC04610B511000D
:1001B800FFF788FFC0B210BD0320704703207047C7
:1001C800F0B55F4656464D464446F0B483B000232A
:1001D800644A1370644A1370644A1360644A136073
:1001E80080229200634B1A60634A644B1A60644A27
:1001F800644B1A60644B1B78002B08D10022634BB8
:100208001A70624B9946604E614B9B4605E001228D
:100218005E4B1A70F5E7FFF7BFFF4B461B78022BC2
:10022800F9D1002333705B4B1B78033BDAB2092A00
:1002380000D989E093005A46D3589F464B4B18681B
:100248004B4B19684D4B1A68FFF780FF30707DE003
:10025800FFF7A6FF307079E0444B1868444B1968E3
:10026800FFF79CFF307071E0444B1B68019300233B
:100278009A463E4D3E4B98464BE043461B682968DC
:100288003C4A126801335B1A934202D9394B1F6802
:1002980004E043461F682B680137FF1A5346002BBA
:1002A80004D0314B1B78012B0BD110E02D4B1B7860
:1002B800012B0CD02B4CFFF76FFF2378012BFAD1C1
:1002C80005E0294CFFF768FF2378012BFAD128684D
:1002D80029687B1EC918019AFFF768FF30703378C8
:1002E800002B16D15346002B08D100221D4B1A7043
:1002F800244B1B68019301239A4607E000221A4BFE
:100308001A701E4B1B68019300239A462B68DF194D
:100318002F603378002B19D12A6843461B689A420C
:10032800ABD913E0FFF748FF30700FE0FFF746FF47
:1003380030700BE00D4B18680D4B19680F4B1A689D
:10034800FFF718FF307001E0012333703378002B7A
:1003580003D001234A4613705FE700234A4613700F
:100368005BE7C046C81B0010CC1B0010D41B001054
:10037800D81B0010E01B0010001C0010E41B00102C
:10038800001E0010E81B0010C41B0010C01B00104A
:08039800C0030010D01B00108F
:1003C000700200102C0300103403001050030010C2
:1003D000500300105802001060020010500300107B
:0803E000440200103C03001070
:04000005100000786F
:00000001FF
