:020000041000EA
:08000000C01B001009000010F4
:1000080010B5144A144B9A420ED2144B124A0332BA
:10001800D21A92080132920000230E481049CC5897
:10002800C45004339342FAD10E4A0F4B9A420ED26F
:100038000E4B0D490331C91A890801318900002383
:10004800140000201A19106004338B42FAD100F012
:1000580029F910BD50050010500500105405001076
:1000680050050010C0040010E0040010C404001083
:1000780010B5114C32232360002363601F33A36043
:100088002100143120000D4B984763690120002B93
:1000980010D1094C34332360002363601F33A360FD
:1000A800074BE360210014312000044B9847606936
:1000B800431E984110BDC046C0040010F11FFF1F29
:1000C800E02E0000F8B507000E001500104C322392
:1000D8002360002363601F33A360210014312000D4
:1000E8000C4B984763690120002B0FD1084C333320
:1000F80023606760A660E560074B23612100143127
:100108002000044B98476069431E9841F8BDC046DB
:10011800C0040010F11FFF1FE02E000002238842D8
:100128000ED8002A0BD00368013305D10430814270
:1001380002D303680133F9D01060002300E00223E2
:10014800D8B2704710B5022388420AD8002A07D0CF
:10015800002310C81B198142FBD21360002300E062
:100168000223D8B210BDC0467047C0460020704771
:1001780010B5FFF77DFFC0B210BDC046F0B54F46C1
:100188004646C0B483B005008946170001904C1C50
:10019800241A80235B019C4251D91E003A00324B3D
:1001A800E9182800FFF7EAFF002852D180235B01F5
:1001B8009C46654467442D4B9C466444B442EDD844
:1001C8003DE080239B0098463A00294BE918280017
:1001D800FFF7D4FF00283CD180239B009C46654450
:1001E8006744244B9C4664444445EDD82CE00322E4
:1001F800FF20012149421E4B224202D038550134CA
:1002080001E0395104349C42F6D920E04B466F2B6B
:100218001FD93B687A6894466344BA689446634435
:10022800FA68944663443A69944663447A69944602
:100238006344BA69944663445B42FB6109E00E4A31
:100248000E4BE3189342BCD9094B9C42CFD9002DE1
:10025800DCD0220039000198FFF734FFC0B203B0A8
:100268000CBC90469946F0BDFF0F000000F0FFFF60
:10027800FF01000000FEFFFFFE0D0000FFFDFFFF75
:10028800032070470320704710B513000A1A013283
:10029800190000F001F90023002800D08233D8B2F9
:1002A80010BDC046F0B55F4656464D464446F0B4CC
:1002B80083B000236B4A13706B4A13706B4A136048
:1002C8006B4A1360802292006A4B1A606A4A6B4B31
:1002D8001A606B4A6B4B1A606B4B1B78002B08D16A
:1002E80000226A4B1A7000239A46684B9B46664F59
:1002F80005E00122654B1A70F5E7FFF735FF5B460D
:100308001B78022BF9D100233B70614B1B78033B10
:10031800DAB21B2A00D997E093005E4AD3589F4669
:10032800524B1868524B1968544B1A68FFF7F6FE7F
:1003380038708BE0FFF71CFF387087E04B4B18686C
:100348004B4B1968FFF712FF38707FE001239A467C
:100358004A4B1B68019300239946444D444B9846E9
:1003680057E043461B682968424A126801335B1A02
:10037800934202D93F4B1E6804E043461E682B682F
:100388000136F61A4B46002B04D0374B1B78012B4D
:100398000BD110E0334B1B78012B0CD0314CFFF7FD
:1003A800E3FE2378012BFAD105E02F4CFFF7DCFEA2
:1003B8002378012BFAD15346002B08D028682968E6
:1003C800731EC918019AFFF75FFF387007E02868A5
:1003D8002968731EC918019AFFF7D0FE38703B7858
:1003E800002B16D14B46002B08D100221D4B1A704A
:1003F800244B1B6801930123994607E000221A4BFE
:100408001A701E4B1B680193002399462B689E198E
:100418002E603B78002B19D12A6843461B689A4204
:100428009FD913E0FFF72CFF38700FE0FFF72AFF82
:1004380038700BE00D4B18680D4B19680F4B1A6894
:10044800FFF780FE387001E001233B703B78002BFA
:1004580003D001235A46137051E700235A461370FC
:100468004DE7C046C81B0010CC1B0010D41B001061
:10047800D81B0010E01B0010001C0010E41B00102B
:10048800001E0010E81B0010C41B0010C01B001049
:10049800D01B0010E004001030B50024A24208D0A0
:1004A800035D651C0C5DA34201D0181B02E02C0003
:0804B800F4E7002030BD000054
:1004E000580300102C0400103404001050040010B5
:1004F000500400103C03001044030010500400108E
:10050000280300103C040010500400105004001098
:10051000500400105004001050040010500400104B
:10052000500400105004001050040010500400103B
:10053000500400105004001050040010500400102B
:100540005004001050040010500400105403001018
:04000005100000786F
:00000001FF
