:020000042000DA
:08000000C00D002009000020E2
:1000080080B582B000AF124B7B60124B3B6007E0BB
:100018003B681A1D3A607A68111D796012681A6087
:100028003B680D4A9342F3D30C4B3B6004E03B68BA
:100038001A1D3A6000221A603B68094A9342F6D3B7
:1000480000F0F2F800F0E8FB00BF0837BD4680BDBD
:10005800780C0020780C0020780C0020780C002008
:04006800780C0020F0
:10006C0080B400AF4FF080431B6903F48013002B66
:10007C0001D0044B00E0044B1846BD465DF8047BF0
:0C008C00704700BF0024F4000048E801A9
:1000980080B400AF4FF080431B6903F40023002BAA
:1000A80007D04FF08043D3F88031002B01DB044B9D
:1000B80000E0044B1846BD465DF8047B704700BF5E
:0800C8000048E8010024F400E7
:1000D00080B400AF4FF080431B6903F40013002B82
:1000E00002D04FF4FA4301E04FF400431846BD46F6
:0800F0005DF8047B704700BFBE
:1000F80080B500AF4FF080431B6903F040439B0F6E
:10010800002B03D1FFF7AEFF034618E04FF0804302
:100118001B6903F040439B0F012B03D1FFF7B8FF86
:1001280003460CE04FF080431B6903F040439B0FEC
:10013800022B03D1FFF7C8FF034600E0002318464F
:0401480080BD00BFB7
:10014C0080B500AFFFF7D2FF01464FF080431A692C
:10015C00034B13401B090133B1FBF3F3184680BD6D
:04016C00F0FF01009F
:1001700080B500AFFFF7EAFF02464FF080431B69EE
:1001800003F00F030133B2FBF3F3184680BD00BF49
:1001900080B500AF4FF080431B6903F48023002B30
:1001A00003D0FFF7E5FF034602E0FFF791FF0346A8
:0401B000184680BDB0
:1001B40080B584B000AF0346FB71FB79062B2DD8C4
:1001C40001A252F823F000BFE9010020F101002050
:1001D400F901002001020020090200201102002080
:1001E40019020020FFF786FFF8601AE0FFF7ACFF62
:1001F400F86016E0FFF7BAFFF86012E0FFF7C6FFF9
:10020400F8600EE0FFF730FFF8600AE0FFF742FF06
:10021400F86006E0FFF75AFFF86002E00023FB6095
:0C02240000BFFB6818461037BD4680BDC7
:1002300080B400AF444A444BD3F8883043F4700391
:10024000C2F88830404B414A9A60414B414A1A6299
:100250003F4B00229A603E4B00221A624FF08041D1
:100260004FF08043D3F880213B4B134043F02003F1
:10027000C1F880314FF080424FF08043D3F8103105
:1002800023F07F6343F00873C2F810314FF08041D0
:100290004FF08043D3F88428304B134043F0015390
:1002A00043F0FF03C1F884382D4A2D4BD3F80034B6
:1002B00023F4E35323F0180343F4815343F0100372
:1002C000C2F800344FF08043264ADA604FF0804293
:1002D0004FF08043D3F8843123F4F81323F44073B0
:1002E00043F4602343F40073C2F884311C4A1C4B6E
:1002F000D3F80C3423F4004323F0C00343F0C003CD
:10030000C2F80C34184B0E22C3F88420144A144B44
:10031000DB6B43F08003D3634FF080424FF08043A8
:10032000D3F8803823F08003C2F8803800BF4FF044
:1003300080435B6903F00073002BF8D000BFBD461B
:100340005DF8047B704700BF00ED00E0C00D0020A9
:100350000010004051E5CC1ADFFFC0C000FB1F8F2A
:0C03600000F000400010200000E0004011
:10036C0080B400AF034B9B691846BD465DF8047B17
:08037C00704700BF00100840AB
:1003840080B400AF034B9B6C1846BD465DF8047BFC
:08039400704700BF0010084093
:10039C0080B500AFFFF7F0FF034603F4585318463F
:0403AC0080BD00BF51
:1003B00080B582B000AFFFF7D9FF78607B6823F487
:1003C000E05323F01C03002B01D1002320E07A68C6
:1003D00040F202231340002B01D0672318E07A6813
:1003E00040F201131340002B01D0682310E07A681B
:1003F00042F220031340002B01D0662308E07A6804
:1004000044F240031340002B01D0652300E0012398
:0804100018460837BD4680BD07
:1004180080B582B000AF78607B68002B01D10423DF
:1004280030E01A48194B1A697B681B7B1B0303F4DD
:100438007C317B685B7B1B0203F470630B431343C3
:1004480043F03003036111497B681B691B0303F404
:100458007F227B68DB89C3F30B031343CB600B4A12
:100468007B685B69C3F313039360084B01221A602E
:1004780000BFFFF783FF0246054B1340B3F5004F5B
:10048800F7D1002318460837BD4680BD0010084044
:0404980000800004DC
:10049C0080B584B000AF78600120FFF785FEF8606E
:1004AC007B684FF004521A607B684FF400225A604C
:1004BC007B684FF400629A607B684FF47A525A6101
:1004CC00FB685B000A4AA2FB03239A0C7B681A6147
:1004DC007B681E22DA817B6803221A737B680322F5
:1004EC005A737B6800221A7600BF1037BD4680BD58
:0404FC0083DE1B433D
:1005000080B588B000AFF860B9607A600023FB6105
:10051000FB685B68013B7B61BA687B691340DB0A5F
:10052000FB74BA687B6813445A1E7B691340DB0A6C
:10053000BB74FB7CBB610DE0BB69DBB21946F8689C
:1005400000F014F80346FB61FB69002B07D1BB697F
:100550000133BB61BA7CBB699A42EDDA00E000BFAF
:0C056000FB6918462037BD4680BD00BF77
:10056C0080B582B000AF78600B46FB707B68002BC7
:10057C0008D097F90330002B06DA7B685B68B3F57B
:10058C00802F01D1042321E097F90330002B0CDBE1
:10059C007B685B68B3F5802F07D00E4AFB7803F0BD
:1005AC007F0343F08043536007E00A4AFB781B0249
:1005BC0003F4FE4343F00043536000BFFFF7E8FE33
:1005CC000346002BFAD1FFF7EDFE03461846083719
:0805DC00BD4680BD001008407F
:1005E40080B592B000AFF860B9607A603B600023D8
:1005F400BB6100233B6200237B6400233B64FB68F4
:100604005B7BFB630023BB630023FB61FB68002B64
:1006140002D07B68002B01D10423F9E0FB681A683F
:10062400BB689A4209D8BA683B681A44FB681968DF
:10063400FB685B680B449A4201D96423E8E0FB68D9
:100644005B68B3F5802F09D0734AFB681B7E002BCF
:1006540001D00F2300E003231361D2E06E4AFB684C
:100664001B7E002B01D00A2300E002231361C8E0A3
:100674007B687B63BB683B633B6B03F003033B62B8
:100684003B6A002B2DD03B6AC3F104037B643B6BB4
:1006940023F003031B68BB617A6C3B68934228BF59
:1006A40013467B6400233B640DE03A6A3B6C1344BD
:1006B40007F118021A447B6B591C79631B78137079
:1006C4003B6C01333B643A6C7B6C9A42EDD33B6BDD
:1006D40023F003031A46BB6913603A6B7B6C134423
:1006E4003B633A687B6CD31A9B08C3F31003BB6368
:1006F4003A687B6CD31A03F00303FB617B6B03F052
:100704000303002B2AD019E07B6B5A1C7A631B78F5
:100714003B757B6B5A1C7A631B787B757B6B5A1C0D
:100724007A631B78BB757B6B5A1C7A631B78FB75E9
:100734003B6B7A691A603B6B04333B63BB6B5A1E99
:10074400BA63002BE0D10EE03B6B7A6B12681A603F
:100754003B6B04333B637B6B04337B63BB6B5A1E81
:10076400BA63002BF0D1FB69002B18D03B6B1B68DC
:100774003B6100233B640BE007F110023B6C1A441D
:100784007B6B591C79631B7813703B6C01333B649E
:100794003A6CFB699A42EFD33B6B3A691A6000BF2B
:1007A400FFF7FAFD0346002BFAD1FB681B7E002BF2
:1007B40003D0FFF7FBFD03462AE0BB68C3F3120333
:1007C40043F04453FB627B68BB623B687B6205E099
:1007D4007B6A002B02D07B6A013B7B627B6A002B25
:1007E4000AD0BB6A5A1CBA621A78FB6A591CF962AD
:1007F4001B78DBB29A42EBD07B6A002B01D1002339
:1008040006E0FB6B5A1EFA63002B7FF431AF012321
:0C08140018464837BD4680BD0010084063
:1008200090B585B000AF7F4B00221A707E4B00223E
:100830001A707E4B00221A607D4B00221A607D4B9D
:100840004FF480521A607C4B7C4A1A607C4B4FF00C
:1008500020221A607B4B1B78DBB2002B03D17A4B32
:1008600000221A7005E0784B01221A7001E000F0B6
:100870000DF9754B1B78DBB2022BF8D1714B0022BE
:100880001A70724B1B78DBB2033B092B00F2B68067
:1008900001A252F823F000BFFF080020050A002043
:1008A000D7090020FD090020FD090020DB080020F9
:1008B000E7080020FD090020C1080020E30900200E
:1008C000604C5A4B18685A4B19685B4B1B681A46A8
:1008D00000F0F0F80346237097E05A4C00F048F916
:1008E0000346237091E0574C504B1A68504B1B68DD
:1008F0001946104600F064F90346237085E0002392
:10090000FB604D4B1B68BB6000237B6057E0484B8E
:100910001B6801331A46454B1B68D31A1A46454BD0
:100920001B689A4203D9434B1B687B6007E0404B2E
:100930001B6801331A463D4B1B68D31A7B60FB686A
:10094000002B0AD101E000F0A1F8364B1B78DBB296
:10095000012BF8D106E000F099F8334B1B78DBB29D
:10096000012BF8D1374C314B1868304B1A687B6833
:10097000013B1344BA68194600F034F9034623706A
:10098000304B1B78DBB2002B19D1FB68002B08D150
:10099000244B00221A702A4B1B68BB600123FB60AA
:1009A00007E0214B00221A70234B1B68BB60002319
:1009B000FB601E491D4B1A687B6813440B60214B7A
:1009C0001B78DBB2002B1FD1184B1A68184B1B6821
:1009D0009A429CD918E01B4C00F03EF90346237064
:1009E00013E0184C114B1868114B1968124B1B6817
:1009F0001A4600F08DF80346237006E0114B0122E1
:100A00001A7002E000BF00E000BF0E4B1B78DBB2A3
:100A1000002B03D00C4B01221A7027E70A4B00224F
:100A20001A7023E7C80D0020CC0D0020D40D002043
:100A3000D80D0020E00D0020E40D00200010002063
:100A4000E80D0020C40D0020C00D0020D00D0020B6
:100A500080B584B000AF0346FB7100F017F80023A7
:100A6000FB73FB79002B02D0692B03D005E0002338
:100A7000FB7305E08123FB7302E00123FB7300BFDE
:0C0A8000FB7B18461037BD4680BD00BF50
:100A8C0080B400AF064B074A1A62054B00229A60ED
:100A9C00034B00221A6200BFBD465DF8047B704711
:080AAC000010004051E5CC1AD6
:100AB40080B586B000AFF860B9607A60FFF7E4FFF4
:100AC40000237B61FA68BB689A4202D87B68002BDA
:100AD40001D102237B617B69002B11D104E0FFF774
:100AE400D3FFFB680433FB60FA68BB689A4204D8FE
:100AF400FB681B68B3F1FF3FF1D07B68FA681A60AA
:0C0B04007B69DBB218461837BD4680BD87
:100B100080B586B000AFF860B9607A60FFF7B6FFC5
:100B200000237B6100233B61FA68BB689A4202D8CC
:100B30007B68002B01D102237B617B69002B11D1E3
:100B400009E0FFF7A3FFFB681B683A6913443B61A8
:100B5000FB680433FB60FA68BB689A42F1D97B6892
:100B60003A691A607B69DBB218461837BD4680BD0A
:100B700080B58AB000AFFFF789FF00237B624FF09A
:100B800080430D4ADA604FF004533B620B4BFB612C
:100B90003B461846FFF782FC3B461846FFF73CFCF5
:100BA000396AFA693B461846FFF7AAFC7B6ADBB252
:100BB00018462837BD4680BD00102000FF0F0700F3
:100BC00080B584B000AF78603960FFF75FFF002325
:100BD000FB600323FB60FB68DBB218461037BD46A1
:040BE00080BD00BF15
:100BE40080B590B000AFF860B9607A60FFF74CFF51
:100BF4000023FB634FF08043154ADA60BA68FB6850
:100C0400D31A01337B637B68BB63FB6803F1045332
:100C14003B6307F114031846FFF73EFC07F1140386
:100C24001846FFF7F7FB396B7B6B07F11400BA6BBF
:100C3400FFF7D6FC0346FB63FB6BDBB21846FFF7FA
:100C440005FFFB6BDBB218464037BD4680BD00BFD5
:040C5400001020006C
:100C580080B582B000AFFFF715FF00237B60032348
:100C68007B607B68DBB218460837BD4680BD00BF95
:0400000520000008CF
:00000001FF
