:020000042000DA
:08000000C00B002009000020E4
:1000080008B5124B124A9A420DD2101D0333181A22
:1000180020F0030004300F4B184453F8041B42F837
:10002800041B8342F9D10C4B0C4A9A420BD2131D84
:100038000B4AD21A22F003021A44043B002143F867
:10004800041B9342FBD100F00DF808BD9C0700206B
:100058009C0700209C0700209C0700209807002090
:040068009F070020CE
:10006C002DE9F84F00F0F0F800236E4A13700432BB
:10007C001370043213700832136004321360183A90
:10008C001370694D694C01E000F0DEF8684B1B7889
:10009C00DBB2022BF8D10022624B1A700C331B78A6
:1000AC00033B1B2B00F2B180DFE803F02A9A9FAFD1
:1000BC00AF191EAF0EA4AFAFAFAFAFAFAFAFAFAF17
:1000CC00AFAFAFAFAFAFAF275A4B18680433196857
:1000DC000C331A6800F0E6F8524B187098E000F0F8
:1000EC0025F9504B187093E0524B1868043319687B
:1000FC0000F042F94B4B18708AE04FF0010B01E015
:10010C004FF0000B4C4BD3F800A04FF00009DFF878
:10011C001481484E59E0494B1B683168484A1268B3
:10012C0001335B1A934202D9454B1F6804E0434BE1
:10013C001B6837680133DF1BB9F1000F04D023783B
:10014C00DBB2012B0BD110E02B78DBB2012B0CD0E6
:10015C0000F07AF82B78DBB2012BF9D105E000F036
:10016C0073F82378DBB2012BF9D1BBF1000F09D066
:10017C0030683368791E1944524600F09FF988F8AC
:10018C00000008E030683368791E1944524600F0CC
:10019C00F9F888F8000098F8003013F0FF0F14D12C
:1001AC00B9F1000F07D100232B70264BD3F800A018
:1001BC004FF0010906E04FF0000984F800901E4B47
:1001CC00D3F800A033681F44376098F8003013F060
:1001DC00FF0F1DD13268194B1B689A429BD917E04F
:1001EC0000F07EF90F4B187012E000F083F90D4B04
:1001FC0018700DE00F4B1868043319680C331A682B
:10020C0000F076F8074B187002E00122054B1A70CB
:10021C00044B1B7813F0FF0F14BF01220022044B78
:10022C001A7033E7C40B0020C80B0020CC0B002045
:10023C00C00B0020D40B0020E40B0020D80B0020B6
:08024C00E00B0020E80B00208C
:100254000C4BDB6913F4807F12D10B4B1B785BB919
:100264000122094B1A70094B45F255521A600622B5
:100274005A6040F6FF729A604AF6AA22034B1A604B
:10028400704700BF00200240980700200030004063
:1002940010B50446FFF7DCFF012C04D0042C0CBF7E
:0C02A4000020822010BD812010BD00BF92
:1002B000F8B505460E461746FFF7CCFFB5420ED8F7
:1002C0008FB90EE0FFF7C6FF2546A64204D30434DB
:1002D0002B68B3F1FF3FF5D03D6000200CE0022019
:1002E0000AE0022008E000F011F92B68B3F1FF3FAB
:0C02F00008BF2C1DE6D0EFE7C0B2F8BD3F
:1002FC00F8B504460E461746FFF7A6FFB4420BD8D6
:10030C0077B90BE0FFF7A0FF54F8043B1D44A6425D
:10031C00F8D23D60002007E0022005E0022003E057
:0C032C0000F0EEF80025EDE7C0B2F8BDCF
:1003380010B5FFF78BFF00F015F901280AD100F07E
:10034800E1F800F0F7F8AA2000F0D6F9044600F02A
:1003580001F90BE000F0D6F800F0ECF800F08CF9A9
:100368000446042806D100F039F90446042C01D1CA
:0C03780000F0D8F82046FFF789FF10BD08
:0C03840008B5FFF765FF032008BD00BFAF
:1003900070B504460E461546FFF75CFF00F0B6F850
:1003A00004F17843B3F5002F0FD2B4427DD2043D5F
:1003B000FFF750FF204655F8041F00F02FF90428DE
:1003C00078D10434A642F3D874E03C4B9C426ED101
:1003D0000F339E426DD1FFF73DFF394C394BA3607F
:1003E00003F18833A3604FF4005000F0E3F8236971
:1003F00043F020032361236943F0400323614FF45A
:10040000302000F0D7F8042803D1236923F020031B
:1004100023612B4E336943F0100333614FF40050D6
:1004200000F0C8F82B88254C23804FF4005000F0D2
:10043000C1F86B8863804FF4005000F0BBF8AB88C4
:10044000A3804FF4005000F0B5F8EB88E3804FF440
:10045000005000F0AFF82B8923814FF4005000F0DA
:10046000A9F86B8963814FF4005000F0A3F8AB89C1
:10047000A3814FF4005000F09DF8EB89E3814FF425
:10048000005000F097F8336903F01003336101283E
:1004900001D004280ED10A4A136923F400731361B2
:1004A0004FF6FF7000F086F804E0042002E003201D
:1004B00000E00320FFF7EEFE70BD00BF00F8FF1F55
:0804C000002002402301674502
:1004C80070B505460C461646FFF7C0FE621B284667
:1004D8003146013200F04CF9002814BF8220002078
:0404E80070BD00BF24
:1004EC0008B5FFF7B1FE00F00BF80020FFF7CCFECB
:0404FC0008BD00BF78
:0C05000008B5FFF7A7FE032008BD00BFF0
:10050C00054B1B6913F0800F05D0034B034A5A604F
:10051C0002F188325A60704700200240230167457F
:10052C00024A136943F080031361704700200240B4
:10053C00054B1B6913F4007F05D1034B034A9A60EA
:10054C0002F188329A60704700200240230167450F
:10055C00024A136943F400531361704700200240B0
:10056C00034BDB6913F0060F14BF0120002070470A
:04057C000020024019
:100580000B4BDB6813F0010F0DD1094BDB6813F047
:10059000100F0AD1064BDB6803F00403002B14BFD5
:1005A000032004207047012070470220704700BFDD
:0405B00000200240E5
:1005B40010B50446FFF7E2FF01280AD16CB1FFF73A
:1005C40047FEFFF7DBFF013C012802D1002CF6D1E6
:1005D40003E0002C08BF052010BD052010BD00BF9E
:1005E40010B54FF43020FFF7E3FF042810D1094C75
:1005F400236943F004032361236943F04003236127
:100604004FF43020FFF7D4FF236923F00403236160
:0806140010BD00BF00200240F0
:10061C0030B583B005460C46002301934FF43020CF
:10062C00FFF7C2FF042820D1114A136943F00103DC
:10063C001361A3B22B804FF43020FFF7B5FF0428D1
:10064C000ED102350195019B240C1C804FF43020F7
:10065C00FFF7AAFF064A136923F00103136104E0B4
:10066C00034A136923F00103136103B030BD00BFCB
:04067C000020024018
:1006800010B5FFF773FF00280CBFAA2400244FF415
:100690003020FFF78FFF04282CD1174B1A6942F046
:1006A00020021A611A6942F040021A614FF43020A8
:1006B000FFF780FF042816D10F4B1A6922F02002A1
:1006C0001A611A6942F010021A610C4B1C804FF437
:1006D0003020FFF76FFF05280CD0074A136923F07D
:1006E0001003136110BD052804D0034A136923F0D9
:1006F0001003136110BD00BF0020024000F8FF1F6F
:1007000010B504464FF43020FFF754FF04282DD1D4
:10071000174B1A6942F020021A611A6942F040022E
:100720001A614FF43020FFF745FF042817D1104B12
:100730001A6922F020021A611A6942F010021A6145
:10074000A4B20C4B1C804FF43020FFF733FF052878
:100750000CD0074A136923F01003136110BD05285C
:1007600004D0034A136923F02003136110BD00BFB6
:080770000020024000F8FF1F09
:1007780010B50A44441E914208D014F8013F087885
:10078800834201D0181A10BD0131F4E7002010BDD2
:040000052000006C6B
:00000001FF
