:020000042000DA
:08000000C006002009000020E9
:10000800002208B5094B0A49D3188B4204D2094982
:10001800895804321960F5E7074B084A934202D21F
:10002800002204C3F9E700F009FA08BD40060020E1
:100038004006002040060020100600202C06002064
:10004800014B18687047C046100600200120054B78
:100058005A68024204D00020034ADA60034ADA6090
:100068007047C04600200240EFCDAB89050403026B
:10007800154B9A69520702D50221144A51749A699C
:10008800D20502D51021114A51749A69920502D5F8
:1000980008210E4A51749A69520502D504210B4A67
:1000A80051749A69120502D52021084A51749A6937
:1000B800920402D50121054A51749B69DB0302D5DC
:1000C8004022024B5A747047002002401806002054
:1000D80010B5064C012063689B0706D5FFF7B6FFED
:1000E8000020034B2361034B236110BD0020024015
:1000F800BFAE9D8C161514130221034A00205368C5
:100108000B4353607047C0460020024010B5064CB0
:10011800012063685B0706D5FFF798FF0020034BB3
:100128006361034B636110BD00200240C8D9EAFB3C
:10013800272625240421034A002053680B435360D3
:100148007047C0460020024070B5051CFFF778FFD5
:10015800061C01240A4B9869204008D06B1CF8D073
:10016800FFF76EFF801BA842F3D9032007E09B69C5
:10017800044A1340934202D1FFF77AFF201C70BD56
:1001880000200240002F01008021054A08B553686D
:10019800C9020B4353600348FFF7D6FF08BDC046AA
:1001A80000200240F0FF0F00034BD869C0B2AA3804
:1001B800431E9841C0B270470020024010B5041C8D
:1001C800A020C002FFF7C0FF002805D1E043C0B25D
:1001D8000004044B20431860A020C002FFF7B4FFBE
:1001E80010BDC0460000F81F034B1A78002A01D141
:1001F80001321A707047C0461406002070B5041CFE
:100208000E1C151CFFF7F0FF0220B4420BD8002D7E
:1002180009D02368002B04D10434FFF7E5FFB4426A
:10022800F7D900202C60C0B270BDF8B5041C0E1CB4
:10023800151CFFF7D9FF0220B4420AD8002D08D0B8
:100248000027FFF7D1FF08CCFF18B442F9D90020E6
:100258002F60C0B2F8BD70B5051C0C1C161CFFF74A
:10026800C3FF621B0132281C311C00F0BDF90023BA
:10027800984200D08233D8B270BD000010B5FFF7A5
:1002880027FF041E23D1FFF78FFF01281CD1FFF79A
:100298003DFF80208001FFF757FFAA20FFF78EFF60
:1002A80080208001FFF750FFFFF76EFF802080015C
:1002B800FFF74AFFFFF73EFF80208001FFF744FF6A
:1002C800041C8220102C04D8024B185D01E0012484
:1002D800FAE710BD2C06002008B5FFF785FF0320BC
:1002E80008BD0000F8B5041C0F1C151C884203D873
:1002F800002A19D1161C14E0002612E0A30720D109
:100308003B1B022B1DDD802008CD800108C4FFF7B0
:100318001BFF061CBC4276D2002EEFD08220102E86
:100328007BD83E4B985D78E0FFF7D2FE80208001B5
:10033800FFF70AFF3A4B061CE2183A4B9A420AD8D2
:10034800E8E780202B7880012370FFF7FDFE013459
:10035800061C0135DEE7F8231B06E218324B9A42E9
:100368000BD8BC424FD2002ED8D1802008CD8001B6
:1003780008C4FFF7E9FE061CF3E72C4B9C4242D168
:100388002B4B9F423FD1FFF7C1FE80208001FFF732
:10039800DBFEFF23061C687A2F7A02023A43111CFF
:1003A8001A1CBA4312040A43191C814309060A435A
:1003B800A26068792F7902023A43111C1A1CBA43C9
:1003C80012040A43191C814309060A4362606878CB
:1003D8002F7802023A43111C1A1CBA4312048343B1
:1003E8000A431B06134322689A4200D02360FFF792
:1003F800CBFE80208001FFF7A7FEFFF79BFE802041
:100408008001FFF7A1FE002E88D1FFF775FE80203E
:100418008001FFF799FE061C80E7F8BD2C06002036
:100428000000F8F7FF170000FFFF02000000F81FA8
:100438000F00F81F0320704703207047F0B589B0FC
:10044800FFF7D2FE02235E4A5E48137000235E491E
:100458005E4D5F4C5F4E2B7003700B7023603360F2
:100468001370039205900691039B1B78022B02D010
:10047800FFF7BAFEF8E70022574B2A701B78534F54
:10048800DBB2082B24D00AD8042B00D181E0052B3D
:1004980000D181E0032B00D088E004921CE00B2BF4
:1004A8000FD007D8092B00D080E020683168FFF70B
:1004B80013FF0FE00C2B72D0012204921E2B0BD0DD
:1004C80074E0464B206831681A68FFF797FE01E030
:1004D800FFF7D4FE38706BE0404B1A68079302921E
:1004E800002201922B78002B62D1206833683849AA
:1004F80098425DD8374B1B680868013384466246CA
:1005080037489B1A0768BB4201D9076804E0314B9A
:100518001F680B680137FF1A019B002B11D1059B3F
:100528001B78012B02D0FFF75FFEF8E7049A7B1EC9
:10053800002A0DD020682168029AC918FFF78BFE9F
:100548000CE0069B1B78012BF0D0FFF74DFEF8E777
:1005580020682168029AC918FFF7C4FE28702B7812
:10056800DBB2002BBED1019A002A08D16A46059B4E
:1005780012791A701B4B1B680293012304E0069A38
:100588001370079A1268029201932368DF19276093
:10059800A8E7FFF74FFF9DE7FFF74EFF9AE70F4BDE
:1005A800206831681A68FFF740FE93E701232B7033
:1005B8002B78DBB2002B00D00123039A137053E78A
:1005C800C0060020C8060020CC060020C406002073
:1005D800D4060020D8060020D0060020E40600201B
:1005E800E0060020E806002030B50024944208D038
:1005F800035D651C0C5DA34201D0181B02E02C1C96
:08060800F4E7002030BD000002
:10062C000082818182828282828282828282828222
:04063C008400000036
:04000005200000488F
:00000001FF
