:020000042000DA
:08000000C00B002009000020E4
:1000080000230A4A0A499818884204D209495958CB
:1000180099500433F5E7084B084A934203D200226B
:1000280043F8042BF8E700F041BA00BFB8060020F7
:10003800B8060020B8060020B8060020B806002040
:10004800024B5A6842F002025A607047003C024074
:10005800044B5A68D20703D5034ADA60034ADA60C8
:10006800704700BF003C0240EFCDAB890504030296
:1000780010B5084C63689B070AD5FFF7E9FF064BE4
:100088002361A3F1F343A3F51923A3F6A91323616D
:0C00980010BD00BF003C0240BFAE9D8CBC
:1000A400024B5A6842F001025A607047003C024019
:1000B40010B5084C63685B070AD5FFF7CBFF064B06
:1000C400636103F1205303F5691303F65F4363612E
:0C00D40010BD00BF003C0240C8D9EAFB90
:1000E000024B5A6842F004025A607047003C0240DA
:1000F000024B5A6842F480225A607047003C02402A
:0C010000014B9861704700BF003C0240BA
:10010C00094B9A69D1070BD49A69D2050AD49A691A
:10011C004FF6F0631340002B0CBF042003207047F4
:0C012C000120704702207047003C024098
:1001380010B50446FFF7E6FF012806D11CB1FFF70A
:10014800E1FF013CF8E7052010BD002C08BF0520A1
:0201580010BDD8
:10015A00012804D004280CBF002082207047812087
:02016A007047DC
:02016C007047DA
:10016E00884210B50AD84AB103461C68043014B947
:10017E0088420346F8D91360002010BD022010BD3E
:10018E00884210B509D842B1002350F8044B88427A
:0E019E002344FAD91360002010BD022010BDCA
:0401AC000320704775
:1001B0008842F8B505460F46144600D82AB90426E9
:1001C0003046BDE8F840FFF7C8BF41F60270FFF7C0
:1001D00097FF4FF40040FFF7AFFF04280646EFD12A
:1001E0007B4B5B68D90701D5FFF746FF41F60270EC
:1001F000FFF786FF4FF40040FFF79EFF05F17743BE
:1002000003F57803B3F5804F064619D2BD4280F05E
:10021000CA80042E40F0C980AA0707D17B1B022B9D
:1002200004DD54F8043B45F8043B03E014F8013BBB
:1002300005F8013B4FF40040FFF77EFF0646E5E777
:1002400005F17843B3F5002F1CD2BD4280F0AB809E
:10025000042E40F0AA806B060AD17B1B7E2B07DDA3
:100260002846214600F0F8F9803506468034ECE750
:1002700054F8043B4FF4004045F8043BFFF75CFFA3
:100280000646E2E7534B9D4240F08D800F339F427C
:10029000514D02D0AF4240F08680FFF7EDFE4FF4A3
:1002A0000040FFF749FFFFF705FF4FF40040FFF75D
:1002B00043FFAF42064633D1227E637E42EA0321EA
:1002C000120482F47F020A43DB43444942EA036397
:1002D0000B60227F637F42EA0321120482F47F02D3
:1002E0000A43DB433E4942EA03630B60227C637CA2
:1002F00042EA0321120482F47F020A43DB433949B4
:1003000042EA03630B60227D637D42EA032112040B
:1003100082F47F020A43DB43334942EA03630B6002
:10032000227A637A42EA0321120482F47F020A43AA
:10033000DB432E4942EA03630B60227B637B42EA84
:100340000321120482F47F020A43DB43284942EA74
:1003500003630B602279637942EA0321120482F479
:100360007F020A43DB43234942EA03630B6021789F
:10037000637841EA0322090481F47F010A43DB43E5
:1003800042EA0362134B1968914218BF1A60FFF7E3
:10039000AFFE4FF40040FFF7CFFEFFF7A1FE4FF492
:1003A0000040FFF7C9FE042E08D041F60270FFF7A7
:1003B000A7FE4FF40040FFF7BFFE01E7FFF744FE42
:1003C000FFF770FE4FF40040FFF7B6FE0646F7E673
:1003D000003C02400000F81F1F00F81F1800F81F23
:1003E0001C00F81F1000F81F1400F81F0800F81F69
:0803F0000C00F81F0400F81FC7
:0403F8000320704727
:1003FC0038B505466FF07F40FFF798FE0428044699
:10040C001AD1CC2D1DD0FFF74FFE4FF40040FFF753
:10041C008DFE0428044609D1EB4345EA03450A4BFB
:10042C006FF07F401D60FFF781FE0446012C03D066
:10043C00FFF750FEFFF730FE2046BDE83840FFF7CF
:0C044C0086BE842038BD00BF0000F81FF1
:1004580010B541F60270FFF74FFE4FF40040FFF76A
:1004680067FE0428044603D0AA20FFF7C3FF04E070
:10047800BB20FFF7BFFF0028F6D02046BDE810409C
:04048800FFF767BE55
:10048C0010B541F60270FFF735FE4FF40040FFF750
:10049C004DFE0428044602D1BB20FFF7A9FF2046DD
:0804AC00BDE81040FFF753BE4C
:1004B4004B4AF8B54B490023137001220A700A71A4
:1004C400494A1360536002F8143C484B1B78022BD2
:1004D40002D0FFF749FEF8E7414C00232370444B58
:1004E4001B78033B092B6ED8DFE803F0155D616DC3
:1004F4006D0C0F6D05643C4B186859681A69FFF759
:1005040034FE5DE0FFF7A6FF4FE0374B18685968EB
:10051400FFF74AFE54E0374B00241E68304B1B782B
:10052400002B52D1304A344B1068196888424CD899
:100534001D683249176801350868ED1B854201D9E9
:100544000F6803E01F6813680137FF1AB4B9254B1D
:100554001B78012B02D0FFF707FEF8E7224D791E26
:1005640028682B6832461944FFF720FE1C4B18708C
:100574001A7802F0FF03002AD0D106E0204B1B7842
:10058400012BEBD0FFF7F0FDF8E724B9154B1C70F5
:100594001E6A012403E01A4A1C46137096692B68EC
:1005A4001F442F60BAE7FFF76FFF20700DE0FFF7DD
:1005B40021FFFAE70C4B186859681A69FFF7E5FD43
:1005C400074B187001E001232370054B1A78043B94
:1005D40002F0FF0112B101221A7076E7197074E774
:1005E400C40B0020C80B0020D40B0020C00B00203B
:1005F400D00B0020E40B0020D80B0020E00B0020DF
:04060400CC0B0020FB
:10060800094B9A69D1070BD49A69D2050AD49A6919
:100618004FF6F0631340002B0CBF042003207047F3
:0C0628000120704702207047003C024097
:1006340010B5FFF7E7FF4FF40044012806D11CB1C1
:10064400FFF7E0FF013CF8E7052010BD002C08BFD0
:04065400052010BDB0
:1006580038B54FF0E0239A68044642F001029A60E8
:100668000D46FFF7E3FF042819D1104B5A6842F4EE
:1006780080625A605A6842F008025A600023EA58B9
:100688001A510433802BFAD1FFF7D0FF074B5A6871
:1006980022F008025A605A6822F480625A604FF0C9
:1006A800E0239A6822F001029A6038BD003C0240BB
:04000005200000488F
:00000001FF
