:020000042000DA
:08000000C00700203D050020AF
:100008002DE9F04700F0C4F8584D594A0023137001
:1000180013712B701361536102F8043C554B1B7824
:10002800022B02D000F0B4F8F8E7514C0026524BEE
:1000380026701B78DBB2082B20D007D8042B7AD087
:10004800052B7BD0032B40F083801BE00B2B0ED0BD
:1000580007D8092B7CD1494B1868596800F012F968
:100068000EE00C2B6DD01E2B72D101260AE0434BFB
:10007800186859681A6900F0B5F801E000F0DCF872
:10008800207068E03E4BDFF8E890D3F80080002746
:1000980099F80030002B5ED138493A4A086813684D
:1000A800984258D813683848D1F800E001330468FA
:1000B800CEEB0303A3429DBF13680C6801330468A9
:1000C80098BF1C1B97B9DFF8C4A09AF80030012B21
:1000D80002D000F05DF8F8E7284B611E66B1186899
:1000E8001B684246194400F065F90BE02B78012B98
:1000F800F2D000F04DF8F9E718681B684246194439
:1001080000F0C6F889F8000099F8002002F0FF0313
:10011800002ABDD12FB91D4B1F70D3F820800127AD
:1001280004E01F46164A2B70D2F80080134B1A6859
:1001380014441C60ACE700F04BF9A1E700F052F959
:100148009EE70E4B186859681A6900F061F897E73E
:10015800074B01221A70064B1A78043B02F0FF0184
:1001680012B101221A7059E7197057E7CC0B002019
:10017800C40B0020C00B0020D00B0020D40B0020A3
:10018800E40B0020D80B0020E00B0020C80B002057
:100198000B4B5B699B0611D40A4B1A7852B90122A2
:1001A8001A7045F25552084B1A6006225A6040F6FA
:1001B800FF729A604AF6AA22034B1A60704700BF82
:1001C800003C0240AC0500200030004008B5FFF7B5
:1001D800DFFF012804D008280CBF0020822008BDBA
:1001E800812008BD10B51446FFF7D2FF88420DD80C
:1001F80064B103461A680430013204D1FFF7C8FF1E
:1002080081420346F5D22360002010BD022010BDB4
:1002180038B51546FFF7BCFF88420BD855B1002406
:10022800FFF7B6FF50F8043B81421C44F8D22C601B
:10023800002038BD022038BD08B5FFF7A9FF00F03F
:10024800FBF8012804D1AA2000F05EF9082013E089
:1002580000F0CEF800F018F9F32000F0F5F8084B9C
:100268001A781B2A05D81878152894BF0020012071
:1002780000E0022000F01AF9BDE80840FFF7A6BF29
:10028800EC0B002008B5FFF783FF032008BD000032
:100298002DE9F0410E4615460446FFF779FF00F0B8
:1002A800A7F800F0F1F80746F32000F0CDF8082F82
:1002B80055D13A4B04F178429A4207D940F20E22BE
:1002C80004F1604303F5084393421BD8A846274628
:1002D800334B1A6922F440721A611A6942F40072A7
:1002E8001A611A6942F001021A61B7422BD2D8F892
:1002F80000303B6000F0C8F8082804BF043708F154
:100308000408F2E7274B9C421FD10F339E421CD1B1
:1003180000F07CF800F0B8F82B78234A03F0FC03CF
:10032800137000F0B1F86A78204B1A7000F0ACF83E
:100338002A891F4B1A8000F0A7F800F0F1F800F0A6
:10034800A3F800F071F800F09FF800F09DF8074658
:1003580001281FBF124A136923F0010313613846AD
:10036800FFF734FFB0B90D4B04F178429A4207D930
:1003780040F20E2204F1604303F50843934209D882
:10038800321B01322946204600F0FCF800280CBF39
:1003980000208220C0B2BDE8F08100BFFEFF3F0010
:1003A800003C024000C0FF1F143C0240153C0240C4
:1003B800163C024010B51446FFF7EAFE0A1A01324D
:1003C800214600F0DFF8002814BF8220002010BD6D
:1003D80008B5FFF7DDFE00F00BF8BDE80840002087
:1003E800FFF7F4BE08B5FFF7D3FE032008BD0000F1
:1003F800044B1A69002ABFBF034A5A6002F18832C7
:100408005A607047003C024023016745044B5A6913
:10041800D20741BF034A9A6002F144329A6070479A
:10042800003C02403B2A1908024A536943F0010381
:1004380053617047003C0240024B1878AA3818BF35
:1004480001207047153C0240014BD860704700BF3F
:10045800003C02400B4BDA68D1030DD4DA68D206AF
:100468000CD4DA6812F0EF0F0AD1DB6813F0020F30
:1004780014BF0720082070470120704705207047E7
:1004880006207047003C024007B508238DF8073066
:10049800FFF7E0FF8DF807009DF80730012BF7D034
:1004A8009DF8070003B05DF804FB000010B5044692
:1004B800FFF7EAFF44B1012C08D0022C0CBF4FF41F
:1004C80000734FF4407303E0234601E04FF4807358
:1004D800082815D10B4C226922F440722261226946
:1004E80013432361236943F004032361236943F41D
:1004F80080332361FFF7C8FF236923F004032361D6
:1005080010BD00BF003C024010B50446FFF7BCFF19
:10051800082804BF014B1C7010BD00BF153C0240E9
:10052800034A137843F002031370FFF7ADBF00BF0F
:10053800143C0240684620F007018D4601B50C4A7C
:100548000C4B0D498B4204D252F8040F43F8040BAC
:10055800F8E70A4B0A4A0021934202D243F8041BE7
:10056800FAE7FFF74DFDBDE801408546704700BF3B
:10057800AC050020B0050020B0050020AC05002027
:10058800B005002010B501390244904207D010F898
:10059800013B11F8014FA342F7D0181B10BD0020F2
:0405A80010BD000082
:0400000520000008CF
:00000001FF
