:020000042000DA
:08000000C00B00205502002096
:10000800064B1A69002A06DA054A00205A6002F1EE
:1000180088325A6070470120704700BF003C024098
:1000280023016745064B5A69D20706D5054A0020C1
:100038009A6002F144329A6070470120704700BF0D
:10004800003C02403B2A1908044A4CF250305369DC
:1000580043F00203536100F077B900BF003C02404F
:10006800074B1A6922F440721A611A691A611A69EF
:1000780042F004021A611A6942F480321A61704728
:10008800003C024010B504464CF2503000F05CF9D8
:1000980028B9034A536923F47F431C43546110BDB4
:1000A800003C0240044B586900F47F40B0F52A40F8
:1000B80018BF0120704700BF003C02402DE9F047FF
:1000C80000F0ECF8584D0023584A137013712B7048
:1000D8001361536102F8043C554B1B78022B02D084
:1000E80000F0DCF8F8E7514C0026524B26701B78DC
:1000F800DBB2082B20D007D8042B7AD0052B7BD075
:10010800032B40F083801BE00B2B0ED007D8092B64
:100118007CD1494B1868596800F05CF90EE00C2B4B
:100128006DD01E2B72D101260AE0434B186859681E
:100138001A6900F0DCF801E000F01CF9207068E0B2
:100148003E4B0027DFF8E490D3F8008099F80030A0
:10015800002B5ED138493A4A08681368984258D843
:1001680013683848D1F800E001330468CEEB030384
:10017800A34201D9046803E013680C6801331C1B0F
:1001880097B9DFF8C4A09AF80030012B02D000F02C
:1001980085F8F8E7284B611E66B1186842461B6867
:1001A800194400F0E1F90BE02B78012BF2D000F0B4
:1001B80075F8F9E7186842461B68194400F010F909
:1001C80089F8000099F8002002F0FF03002ABDD149
:1001D8002FB91D4B1F700127D3F8208004E0174A60
:1001E8001F462B70D2F80080134B1A6814441C6009
:1001F800ACE700F0C8F9A1E700F0CCF99EE70E4B98
:10020800186859681A6900F089F897E70122074BBE
:100218001A70064B1A78043B02F0FF0112B1012252
:100228001A7059E7197057E7CC0B0020C40B00204F
:10023800C00B0020D00B0020D40B0020E40B0020C2
:10024800D80B0020E00B0020C80B002068460E4A9F
:100258000E4B20F007018D460D4901B58B4204D2A3
:1002680052F8040F43F8040BF8E70A4B00210A4A36
:10027800934202D243F8041BFAE7FFF71FFFBDE8D9
:1002880001408546704700BFC4050020C80500200E
:10029800C8050020C4050020C80500200D4A1378B1
:1002A80053B90D4B45F2555119600621596040F676
:1002B800FF719960012313704AF6AA22064B1A604F
:1002C800A3F580637F225A601A6842F07F021A60A1
:1002D800704700BFC40500200030004008B5FFF794
:1002E800DDFF18B102280CBF8120822008BD38B577
:1002F8000D461446FFF7D2FFA8420DD864B1034655
:1003080004301A68013204D1FFF7C8FF854203465A
:10031800F5D22360002038BD022038BD70B50E46E6
:100328001546FFF7BBFFB0420BD855B10024FFF7C5
:10033800B5FF50F8043B86421C44F8D22C600020DC
:1003480070BD022070BD000008B5BFF34F8FFFF7E6
:10035800A5FF0748C368DB0302D5FFF79FFFF9E74E
:10036800034BDB6813F0F20F14BF0120002008BD17
:10037800003C024008B5FFF791FFFFF793FE012804
:1003880004D14FF42A40FFF77DFE16E0FFF738FE50
:100398004CF25030FFF7D8FFF3220C4BDA6080B9EB
:1003A8000B4B1A781B2A05D81878152894BF0020FB
:1003B800012000E00220FFF753FE4CF25030FFF717
:1003C800C3FFBDE80840FFF789BF00BF003C0240FB
:1003D800EC0B002008B5FFF761FF032008BD000003
:1003E8002DE9F3415A4D4FF0F3080F4614460646DF
:1003F800FFF754FFFFF704FE4CF25030FFF7A4FF5D
:10040800C5F80C804CF25030FFF79EFF002840F0F2
:10041800898006F178424F4B9A421FD8FFF7F0FDCA
:100428002B6923F440732B612B6943F400732B6110
:100438002B6943F001032B61BFF34F8FA4F104082C
:100448003546AF4261D958F8043F4CF250302B6022
:10045800FFF77AFF00285ED10435F2E73E4B9E4253
:1004680004D04CF25030FFF76FFF54E03B4B9F42F3
:10047800F7D1FFF7D7FD4CF25030FFF765FFC5F80D
:100488000C804CF25030FFF75FFF354B4CF2503088
:1004980001932378019A03F0FC031370FFF754FFCC
:1004A800019B62784CF250305A70FFF74DFF019B68
:1004B800227A4CF250309A70FFF746FF019B627A1D
:1004C8004CF25030DA70FFF73FFF264B227C4CF29B
:1004D80050300193019B1A70FFF736FF019B627C35
:1004E8004CF250305A70FFF72FFF019B227E4CF2DE
:1004F80050309A70FFF728FF019B627E4CF2503013
:10050800DA70FFF721FFFFF79FFD4CF25030FFF73D
:100518001BFF0028A5D0022804D00D4A136923F038
:1005280001031361FFF7DAFE70B906F17842094B4F
:100538009A4209D8BA1B21463046013200F02FF8FA
:1005480000280CBF00208220C0B202B0BDE8F081B4
:10055800003C0240FEFF1F000000FF1F1F00FF1F9E
:10056800143C0240183C024038B50C461546FFF7CB
:1005780095FE221A2946013200F011F8002814BF0E
:100588008220002038BD08B5FFF788FEFFF738FD48
:10059800002008BD08B5FFF781FE032008BD10B58F
:1005A80001390244904207D010F8013B11F8014F7D
:0C05B800A342F7D0181B10BD002010BD9E
:0400000520000008CF
:00000001FF
