:020000042000DA
:08000000C00B002009000020E4
:10000800684620F007018D4601B50C4A0C4B0D4996
:100018008B4204D252F8041F43F8041BF7E70A4B3B
:100028000A4A934203D2002243F8042BF8E700F06F
:100038000FF8BDE801408546704700BFDC05002089
:10004800E0050020E0050020DC050020E005002098
:10005800554AF8B500231370137113721361536175
:1000680002F8043C514B1B78022B02D000F0AEF88A
:10007800F8E74D4C4E4B002525701B78DBB2082B5A
:100088001FD006D8042B73D0052B74D0032B7CD13A
:100098001BE00B2B0ED007D8092B76D1454B1868DF
:1000A800596800F02CF90EE00C2B67D01E2B6CD190
:1000B80001250AE03F4B186859681A6900F0ECF806
:1000C80001E000F017F9207062E03B4B1F68002642
:1000D800354B1B78002B5BD13649384A08681368C2
:1000E800984255D813683648D1F800E004680133BF
:1000F800CEEB0303A3429BBF13680C68046801336B
:1001080098BF1C1B86B92F4B1B78012B02D000F01F
:100118005DF8F8E7274B621E6DB11868196811443D
:100128003A4600F0F1F90CE0274B1B78012BF1D08F
:1001380000F04CF8F8E71868196811443A4600F0DE
:10014800E3F8194B1870184B1A7802F0FF03002ACD
:10015800BED126B91B4B1E701F6A012603E01A4A3E
:10016800137097691E46134B1A6814441C60AFE756
:1001780000F0DBF9A7E700F0DDF9A4E70D4B1868FC
:1001880059681A6900F0A0F89DE7074B01221A7018
:10019800054B1A78043B02F0FF0112B101221A70D4
:1001A80060E719705EE700BFC40B0020C00B002099
:1001B800D00B0020D40B0020E40B0020D80B00202B
:0C01C800E00B0020C80B0020CC0B002036
:1001D4000D4A137853B90D4B45F255511960062158
:1001E400596040F6FF71996001231370074B4AF67A
:1001F400AA221A60A3F580637F225A601A6842F02B
:100204007F021A60704700BFDC0500200030004008
:1002140010B50446FFF7DCFF24B1022C0CBF81208B
:08022400822010BD204610BD30
:10022C0008B5BFF34F8FFFF7CFFF194B1A69D003F7
:10023C00F9D41A69910726D41A69120723D41A69BA
:10024C00D00620D41A6991061DD41A6952061AD404
:10025C001A69100617D41A69D10514D41A699205B3
:10026C0011D41B695B040ED4094A106910F40040C8
:10027C0009D19369002B06DB136913F0010304D039
:10028C000123136108BD012008BD184608BD00BF3D
:04029C0000200240FC
:1002A00070B504460E461546FFF794FFB4420DD8CC
:1002B00065B1234604341A68013204D1FFF78AFF7E
:1002C000B4422346F5D92B60002070BD022070BDDA
:1002D000F8B504460F461646FFF77CFFBC420BD824
:1002E00056B10025FFF776FF54F8043BBC421D448D
:0C02F000F8D935600020F8BD0220F8BDF0
:0A02FC0008B5FFF769FF032008BDF5
:0A03060008B5FFF764FF032008BDEF
:100310002DE9F341044615460E46FFF75BFF744B8B
:100320009A6942F000429A614CF2FA321A614CF238
:100330005030FFF77BFF002840F0A280B4F1006F3F
:10034000C0F09E806B4B1B88C3F30B03B3F5806F2B
:100350000BD0B3F5007F01D1674B03E0B3F5807F8D
:1003600003D1664B9C4203D91EE0B4F1016F1BD24E
:1003700000F0EAF85E4A536943F001035361A5F1C6
:1003800004082746B74207D258F8043F3B604CF2B6
:100390005030FFF74BFF28B1554A536923F0010352
:1003A00053616DE00437EDE7554B9C422AD127336A
:1003B0009E4265D100F0C8F800F0E2F84CF25030EF
:1003C000FFF734FF4F4B0093009B2A681A604CF2F2
:1003D0005030FFF72BFF009BAA685A604CF2503058
:1003E000FFF724FF009B2A699A604CF25030FFF718
:1003F0001DFF009BAA69DA604CF25030FFF716FF30
:10040000009B2CE0404B9C423AD127339E4237D18F
:1004100000F09AF800F0B4F84CF25030FFF706FF05
:100420003A4B0193019B2A681A604CF25030FFF757
:10043000FDFE019BAA685A604CF25030FFF7F6FEB1
:10044000019B2A699A604CF25030FFF7EFFE019B46
:10045000AA69DA604CF25030FFF7E8FE019B2A6A85
:100460001A614CF25030FFF7E1FE214A536943F420
:100470000033536100F096F84CF25030FFF7D6FE8F
:100480004CF25030FFF7D2FE074600F06FF83846C6
:10049000FFF7C0FE38BBB4F1006F24D3154B1B88A7
:1004A000C3F30B03B3F5806F0DD0B3F5007F01D11B
:1004B000114B03E0B3F5807F05D1104B9C428CBFFC
:1004C0000023012304E0B4F1016F2CBF00230123BA
:1004D0004BB1321B20462946013200F06FF800284C
:1004E0000CBF00208220C0B202B0BDE8F08100BF86
:1004F00000200240E075FF1FFFFF0708FFFF030811
:100500000078FF1F2020024000F8FF1F3420024027
:1005100070B505460C461646FFF75CFE621B284682
:100520003146013200F04AF8002814BF8220002032
:0205300070BD9C
:0A05320008B5FFF74EFE032008BDD8
:0A053C0008B5FFF749FE032008BDD3
:10054800064B5A69002ABFBF054A9A6002F18832F1
:100558000020B4BF9A600120704700BF002002400D
:0405680023016745BF
:10056C00034A536943F0004353610020704700BFB6
:04057C000020024019
:10058000064B5A69520041BF054ADA6002F1443213
:1005900000204CBFDA600120704700BF00200240FD
:0405A0003B2A1908D1
:1005A400044A536943F0006353614CF25030FFF73F
:0805B4003BBE00BF0020024025
:1005BC0010B50A44441E914208D014F8013F087843
:1005CC00834201D0181A10BD0131F4E7002010BD90
:0400000520000008CF
:00000001FF
