:020000042000DA
:08000000C00B00206D00002080
:10000800032A70B404460D4626D941EA000313F0CA
:10001800030F13D020782B78984208BF294606D0C2
:100028001EE014F8010F11F8013F984218D1012A77
:1000380002F1FF32F5D1002070BC70470B46044630
:1000480051F8045B50F8046BAE4204D1043A0446FC
:10005800032A0B46F2D81D461046002ADAD1EBE7F0
:04006800C01AE9E7EA
:10006C00684620F007018D4601B50C4A0C4B03E0A5
:10007C0052F8041B43F8041B0A498B42F8D30A4B71
:10008C0002E0002243F8042B084A9342F9D300F013
:10009C000FF8BDE801408546704700BF4C060020B4
:1000AC004C0600204C0600203C0600204006002098
:1000BC00534AF8B500231370137113721361536113
:1000CC0002F8043C01E000F0ADF84E4B1B78022B1B
:1000DC00F9D14B4C4C4B002727701B78082B19D0AF
:1000EC0006D8042B74D0052B75D0032B7DD11CE0C6
:1000FC000B2B08D002D8092B77D10FE00C2B6DD02D
:10010C001E2B72D110E0414B186859681A6900F027
:10011C00B5F801E000F0EAF8207069E03B4B186894
:10012C00596800F009F9F7E70127394B00241D68DD
:10013C0044E0D3F800E03749166808680EF1010E68
:10014C00C6EB0E06864201D90E6803E01E681368E2
:10015C000136F61A14B108E000F064F82E4B1B7847
:10016C00012BF9D105E000F05DF82C4B1B78012B2D
:10017C00F9D1264A731E37B1106811682A46C9187E
:10018C0000F084F905E0106811682A46C91800F0DF
:10019C00D9F81B4B18701A4B1B781A4673B924B933
:1001AC001D4B1C701D6A013404E01C490B70184B6C
:1001BC001D681446154B1A6896191E60104B1B7857
:1001CC00B3B9124A164B106819688842B1D90FE0BE
:1001DC0000F06DF9A0E700F074F99DE70B4B18687F
:1001EC0059681A6900F068F896E7054B01221A70F5
:1001FC00034B1A78043B02B101221A7065E700BF69
:10020C00C40B0020C00B0020D00B0020D40B00200E
:10021C00E40B0020E00B0020C80B0020CC0B0020CE
:04022C00D80B0020CB
:100230000B4B5B6913F0200F11D10A4B1A7852B99E
:1002400001321A70084B45F255521A6006225A6064
:1002500040F6FF729A60044B4AF6AA221A60704771
:0C026000003C02403C0600200030004042
:10026C0010B50446FFF7DEFF601EC0B208289ABF27
:0C027C00014B185C822010BD40060020E1
:1002880070B504460D461646FFF7CEFFAC4211D8AE
:1002980096B100F01DF904E0FFF7C6FFAC42234613
:1002A80005D8234654F8042BB2F1FF3FF4D033604D
:0C02B800002070BD022070BD022070BD4F
:1002C400F8B504460D461746FFF7B0FFAC420DD80B
:1002D40077B100F0FFF80026FFF7A8FF54F8043BBD
:1002E400AC421E44F8D93E600020F8BD0220F8BD9F
:0402F4000220F8BD2F
:1002F80010B5FFF799FF00F013F9012804D1A930D0
:1003080000F05AF9092013E000F0E2F800F03AF999
:10031800F32000F00DF9084B1A781B2A05D8187835
:10032800152894BF0020012000E0022000F050F9B9
:0C033800BDE81040FFF796BFEC0B002062
:0A03440008B5FFF773FF032008BDA2
:100350002DE9F0410D4616460446FFF769FF00F00F
:10036000BBF800F013F90746F32000F0E5F8092F79
:100370005CD1414B04F178429A4207D904F16043C1
:1003800003F5084340F20E2293421CD83B4B1A69F6
:1003900022F440721A611A6942F400721A611A69F1
:1003A00042F001021A61B046274609E0D8F8003051
:1003B0003B6000F0EBF8092802D1043708F104088B
:1003C000AF42F3D330E02E4B9C4218D10F339D4205
:1003D00015D100F091F800F0D9F83278294B02F0ED
:1003E000FC021A7000F0D2F87278274B1A7000F0F5
:1003F000CDF83389254A9B049B0C13800CE0244BD9
:100400009C4213D10F339D4210D100F075F800F0DB
:10041000BDF832891F4B1A8000F0B8F800F0C6F81A
:1004200000F0B4F800F078F800F0B0F800F0AEF8A2
:10043000012804D0114B1A6922F001021A61FFF75A
:1004400015FFB0B90C4B04F178429A4207D904F178
:10045000604303F5084340F20E22934209D82A1B59
:10046000204631460132FFF7CFFD002814BF82201D
:100470000020C0B2BDE8F081FEFF1F00003C02403A
:1004800000C0FF1F143C0240153C0240163C0240D5
:0804900000C0FE1F1A3C0240EF
:1004980070B504460E461546FFF7C6FE331B2046C8
:1004A80029465A1CFFF7ACFD002814BF8220002003
:0204B80070BD15
:1004BA0010B5FFF7B8FE00F00AF80020BDE81040BA
:0404CA00FFF7CFBEAB
:0A04CE0008B5FFF7AEFE032008BDDD
:1004D800044B1A69002A03DA034A5A60034A5A602D
:1004E800704700BF003C024023016745AB89EFCD50
:1004F800044B5A6912F0010F03D0034A9A60034A69
:100508009A607047003C02403B2A19087F6E5D4C98
:10051800024B5A6942F001025A617047003C02409E
:10052800024B1878AA3818BF01207047153C0240C2
:0C053800014BD860704700BF003C02403F
:10054400104BDA6812F4803F13D1DA6812F0100FFE
:1005540011D1DA6812F4807F0FD1DA6812F0EF0F4C
:100564000DD1D86800F0020000280CBF0920082033
:10057400704701207047062070470220704707200B
:08058400704700BF003C02407B
:10058C0007B509238DF80730FFF7D6FF8DF8070064
:0E059C009DF80730012BF7D09DF807000EBD2B
:1005AC00034B1A7842F002021A70FFF7E9BF00BF42
:0405BC00143C0240A9
:1005C00010B50446FFF7E2FF092804BF014B1C7079
:0805D00010BD00BF153C024004
:1005D80010B50446FFF7D6FF44B1012C08D0022C11
:1005E80014BF4FF440734FF4007303E0234601E057
:1005F8004FF48073092819D10D4C226922F44072F6
:100608002261226913432361236943F4004343F0C1
:1006180004032361236943F480332361FFF7B2FFA6
:10062800236923F4004323F00403236110BD00BFB2
:04063800003C024040
:0C0640008182828282828282000000009F
:0400000520000008CF
:00000001FF
