:020000042000DA
:08000000C00B002009000020E4
:1000080008B50E4B0E4A9A4208D20E4A0C4B0B48C2
:1000180052F8041B43F8041B8342F9D30A4B0B4ADA
:100028009A4207D213464FF00001074A43F8041BCF
:100038009342FBD300F03EF808BD00BF1009002032
:100048001009002010090020100900200C090020C8
:10005800032A70B404460D4626D941EA000313F07A
:10006800030F13D020782B78984208BF294606D072
:100078001EE014F8010F11F8013F984218D1012A27
:1000880002F1FF32F5D1002070BC70470B460446E0
:1000980051F8045B50F8046BAE4204D1043A0446AC
:1000A800032A0B46F2D81D461046002ADAD1EBE7A0
:0400B800C01AE9E79A
:1000BC002DE9F84F00F04CFA4FF00003794A137019
:1000CC0002F10402137002F10402137002F108022F
:1000DC00136002F104021360A2F118021370724D46
:1000EC00724C01E000F034FA714B1B78022BF9D101
:1000FC004FF000026B4B1A7003F10C031B78A3F149
:10010C0003031B2B00F2BD80DFE813F01C00A400DE
:10011C00A900BB00BB002C003100BB001F00AE00CF
:10012C00BB00BB00BB00BB00BB00BB00BB00BB00EB
:10013C00BB00BB00BB00BB00BB00BB00BB00BB00DB
:10014C00BB003B004FF0000B1DE05A4B186803F14D
:10015C000403196803F10C031A6800F01BFA514BE5
:10016C00187092E000F068FA4E4B18708DE0514B0D
:10017C00186803F10403196800F080FA494B1870F1
:10018C0083E04FF0010B4C4BD3F800A04FF000096B
:10019C00444F484E56E0494B1A68316803F1080346
:1001AC001B6802F10102521A9A4203D9444BD3F84C
:1001BC00008006E0414B1A68336802F10108C3EB7A
:1001CC000808B9F1000F03D02378012B09D10DE0F9
:1001DC002B78012B0AD000F0BBF92B78012BFAD12C
:1001EC0004E000F0B5F92378012BFAD1BBF1000F34
:1001FC0009D03068316808F1FF33C918524600F055
:10020C0009FA387008E03068316808F1FF33C91812
:10021C00524600F039FA38703B789BB9B9F1000FAF
:10022C0006D12B70274BD3F800A04FF0010906E044
:10023C004FF0000984F800901F4BD3F800A03368EE
:10024C00434433603B7803BB32681C4B1B689A42B7
:10025C00A1D91AE000F0E8FA124B187015E000F082
:10026C00EDFA104B187010E0124B186803F10403F0
:10027C00196803F10C031A6800F0B0F9094B1870F7
:10028C0003E04FF00102074B1A70064B1B7823B1A9
:10029C004FF00102064B1A7026E74FF00002044B98
:1002AC001A7021E7C40B0020C80B0020CC0B0020D7
:1002BC00C00B0020D40B0020E40B0020D80B002036
:0802CC00E00B0020E80B00200C
:1002D400034B044A5A6002F188325A60704700BFE7
:0802E4000020024023016745E0
:0C02EC00014B186A704700BF0020024060
:1002F800024BD869C0F34000704700BF002002409D
:100308000C4BDB6813F0010F0DD10A4BDB6813F0BF
:10031800040F0BD1074BD86800F0100000280CBF61
:100328000420032070474FF0010070474FF002008F
:08033800704700BF00200240E5
:100340000C4BDB6813F0010F0DD10A4BDB6813F087
:10035000040F0BD1074BD86800F0100000280CBF29
:100360000420032070474FF0010070474FF0020057
:08037000704700BF00200240AD
:1003780010B582B004464FF004038DF80730FFF73C
:10038800DBFF8DF807009DF80730012B0FD17CB1FA
:1003980000F0E0F8FFF7D0FF8DF8070004F1FF3414
:1003A8009DF80730012B02D1002CF1D100E01CB9D7
:1003B8004FF005038DF807309DF8070002B010BD17
:1003C80010B504464FF43020FFF7D2FF04283FD180
:1003D800204B214A9A6002F188329A601A6942F0E9
:1003E80020021A611A6942F040021A614FF4302063
:1003F800FFF7BEFF042822D1164B196941F6DF72B8
:1004080001EA02021A611A6942F010021A6124B163
:10041800124B4FF000021A8003E0104B4FF0A50278
:100428001A804FF43020FFF7A3FF052810D0094A9F
:10043800116941F6EF7301EA0303136110BD052842
:1004480006D0044A116941F6DF7301EA0303136118
:1004580010BD00BF002002402301674500F8FF1FC0
:1004680010B5FFF745FF00280CBFA52400244FF462
:100478003020FFF77DFF042837D11C4B1C4A9A60B7
:1004880002F188329A601A6942F020021A611A69E8
:1004980042F040021A614FF43020FFF769FF042848
:1004A8001AD1124B196941F6DF7201EA02021A6188
:1004B8001A6942F010021A610E4B1C804FF400506A
:1004C800FFF756FF052810D0084A116941F6EF7367
:1004D80001EA0303136110BD052806D0034A116918
:1004E80041F6EF7301EA0303136110BD00200240D7
:0804F8002301674500F8FF1F16
:1005000010B54FF43020FFF737FF042812D10A4C02
:10051000236943F004032361236943F0400323610B
:100520004FF43020FFF728FF226941F6FB7302EAFF
:0C0530000303236110BD00BF0020024047
:10053C00032809D0042804D001280CBF8120822074
:10054C0070474FF0000070474FF08400704700BFB9
:10055C000D4BDB6913F0040F14D10C4B1B786BB9EA
:10056C004FF00102094B1A70094B45F255521A60B3
:10057C004FF006025A6040F6FF729A604AF6AA22C1
:10058C00034B1A60704700BF002002400C0900208A
:04059C0000300040EB
:1005A000F8B505460E461746FFF7D8FFB54214D8F2
:1005B000B7B12B68B3F1FF3F0BD105F10404FFF78E
:1005C000CDFF2546A64204D354F8043BB3F1FF3FC8
:1005D000F5D03D604FF00000F8BD4FF00200F8BDCF
:0805E0004FF00200F8BD00BF5E
:1005E800F8B504460E461746FFF7B4FFB4420DD8D7
:1005F8007FB14FF00005FFF7ADFF54F8043BED184D
:10060800A642F8D23D604FF00000F8BD4FF002005E
:08061800F8BD4FF00200F8BD2F
:1006200070B504460D461646FFF798FF2A1B204674
:10063000314602F10102FFF70FFD002814BF8220AE
:04064000002070BD69
:1006440008B5FFF789FFFFF755FE012806D1FFF72C
:100654003FFE4FF00000FFF7B5FE0CE0FFF738FE59
:10066400FFF700FF042806D1FFF73EFEB0F1FF3F7D
:1006740004D04FF00300FFF75FFF08BDFFF73EFF14
:04068400F9E700BFD3
:0C06880008B5FFF767FF4FF0030008BD46
:1006940070B504460E461546FFF75EFF5F4B604A91
:1006A4005A6002F188325A604FF40050FFF762FE3C
:1006B400042840F0A88004F178425A4B9A4233D877
:1006C400564B1A6942F001021A6105F1040515E05E
:1006D400012801D0042802D135F8043C2380FFF717
:1006E40011FE012801D0042802D135F8023C6380B0
:1006F400FFF708FE04F1040405F10405012801D004
:10070400042809D1B442E3D3012801D0042803D139
:100714004FF6FF70FFF72EFE404A116941F6FE7353
:1007240001EA030313616EE03F4B9C426ED103F177
:100734000F039E426DD1394C394BA3603B4BA360F0
:100744004FF40050FFF716FE236943F020032361A2
:10075400236943F0400323614FF43020FFF70AFE7E
:10076400042808D1216941F6DF7211402161216911
:1007740001EA02022261294E336943F01003336116
:100784004FF40050FFF7F6FD2B88274C23804FF4DD
:100794000050FFF7EFFD6B8863804FF40050FFF7C4
:1007A400E9FDAB88A3804FF40050FFF7E3FDEB882D
:1007B400E3804FF40050FFF7DDFD2B8923814FF4D4
:1007C4000050FFF7D7FD6B8963814FF40050FFF7AA
:1007D400D1FDAB89A3814FF40050FFF7CBFDEB892A
:1007E400E3814FF40050FFF7C5FD326941F6EF7322
:1007F40002EA03033361012801D0042803D14FF630
:10080400FF70FFF7B7FDFFF797FE04E04FF002001B
:1008140001E04FF00200C0B270BD00BF00200240F2
:1008240023016745FEFF0F0000F8FF1FAB89EFCDE2
:1008340008B5FFF74DFD4FF00100FFF7C3FDFFF7CB
:040844007BFE08BD72
:080848004FF00300704700BFF0
:10085000184B1A6842F004001860196841F0010250
:100860001A60186840F480411960134B1A6822F02E
:10087000F0001860196841F0B0021A60186820F49E
:10088000706119601A680C2142F4806018600B4B8B
:100890000B4800221A8023F8041C0280094A40F207
:1008A0004131118033F8040C81B241F4005223F835
:1008B000042C704718100240040801401038014011
:0808C000143801400838014022
:1008C8000C4B10B50446188800F400518AB20AB9D6
:1008D800FFF7BAFF0A2C02D10D20FFF7F1FF064BF4
:1008E800188800F080018AB2002AF8D0034BA4B21D
:1008F8001C8010BD0C38014000380140043801400C
:04090800101C704708
:04000005200000587F
:00000001FF
