:020000042000DA
:10000000C00B0020E50100200000000000000000FF
:1000100000000000000000000000000000000000E0
:1000200000000000000000000000000000000000D0
:1000300000000000000000000000000000000000C0
:1000400000000000000000000000000000000000B0
:1000500000000000000000000000000000000000A0
:100060000000000000000000000000000000000090
:100070000000000000000000000000000000000080
:100080000000000000000000000000000000000070
:100090000000000000000000000000000000000060
:1000A0000000000000000000000000000000000050
:1000B0000000000000000000000000000000000040
:1000C0000000000000000000000000000000000030
:1000D0000000000000000000000000000000000020
:1000E0000000000000000000000000000000000010
:1000F0000000000000000000000000000000000000
:1001000000000000000000005FF808F1000000009F
:1001100000000000000000000000000000000000DF
:1001200000000000000000000000000000000000CF
:1001300000000000000000000000000000000000BF
:1001400000000000000000000000000000000000AF
:10015000000000000000000000000000000000009F
:10016000000000000000000000000000000000008F
:10017000000000000000000000000000000000007F
:10018000000000000000000000000000000000006F
:10019000000000000000000000000000000000005F
:1001A000000000000000000000000000000000004F
:1001B000000000000000000000000000000000003F
:1001C000000000000000000000000000000000002F
:1001D000000000000000000000000000000000001F
:0401E0005FF8E0F1F3
:1001E400684620F007018D4601B50C4A0C4B03E02C
:1001F40052F8041B43F8041B0A498B42F8D30A4BF8
:1002040002E0002243F8042B084A9342F9D300F099
:10021400B1F8BDE801408546704700BF34070020AF
:100224003407002034070020300700203007002066
:100234000138C0B203289ABF014B185C8220704772
:04024400300700205F
:020248007047FD
:10024A00884270B504460D4616460FD882B100F0B2
:10025A0064F902E0AC42234605D8234654F8042B3D
:10026A00B2F1FF3FF6D03360002070BD022070BDAE
:04027A00022070BD31
:10027E00884270B504460D4616460BD862B100F0A2
:10028E004AF9002354F8042BAC421344FAD93360D4
:0C029E00002070BD022070BD022070BD69
:1002AA00012010B500F005F900F043F9012803D147
:1002BA00013800F070F905E000F0C9F9042801D10D
:0C02CA0000F013FABDE81040FFF7AFBFD2
:0402D600032070474A
:1002DC002DE9F041044601200D46174600F0E8F8E0
:1002EC000F2000F045F904282DD1194B00261A686F
:1002FC0042F001021A6012E0012801D0042801D159
:10030C00BB5B238000F01CF9012801D0042802D12A
:10031C00BB591B0C638000F013F90434043601281C
:10032C0001D0042808D1AC42E6D3012801D004281E
:10033C0002D10F2000F01CF9054A41F6FE7311683A
:10034C0001EA03031360BDE8F041FFF76DBF00BF86
:04035C0010800040CD
:1003600010B500F0DFF8012000F01AF9BDE81040E8
:04037000FFF760BF74
:0403740003207047AB
:10037800474AF8B50023137013711372137353614E
:10038800936101E0FFF75CFF414B1B78022BF9D129
:10039800404C023B2370404B1B78033B092B6DD824
:1003A800DFE803F0155C606C6C0C0F6C05633B4B6D
:1003B800186859681A69FFF744FF5CE0FFF771FF96
:1003C8004EE0364B18685968FFF781FF53E0344B0D
:1003D80000241D6838E01E6832491768013608682D
:1003E800F61B864201D90E6803E01E6813680136C1
:1003F800F61A14B108E0FFF723FF2B4B1B78012BEB
:10040800F9D105E0FFF71CFF284B1B78012BF9D128
:10041800224B2A4618681968731EC918FFF75AFF35
:100428001C4B18701B781A4673B924B91E4B1C70E4
:100438001D6A013404E01D4914460B70184B1D68F1
:10044800164B1A6896191E60124B1B78C3B9134ACB
:10045800174B106819688842BDD911E0FFF77CFF77
:1004680020700DE0FFF782FFFAE70C4B1868596817
:100478001A69FFF700FF074B187001E0012323708A
:10048800044B1A78043B02B101221A707CE700BFC2
:10049800C00B0020C40B0020D00B0020D40B002080
:1004A800E40B0020E00B0020C80B0020CC0B002040
:0404B800D80B00203D
:1004BC00B0B1134A13481449144B106011605060CA
:1004CC0051601A6842F001021A60104B5B6813F01D
:1004DC00010FFAD00E4B1B6813F0010FFAD17047C5
:1004EC000A4B5A6812F0020FFAD11A6822F0010274
:1004FC001A60084B1A6842F080021A60704700BFFD
:10050C000480004023016745AB89EFCD2C400040AF
:08051C000C800040108000403B
:10052400024B034A1A60034A1A6070470480004071
:0805340023016745AB89EFCDFF
:10053C00024B1868C0F34000704700BF1C8000409D
:10054C000A4B1A6812F0010F0BD11A6812F0040F43
:10055C0009D1186800F0100000280CBF04200320FB
:10056C007047012070470220704700BF0C8000408C
:10057C0010B50446FFF7E4FF02E0FFF7E1FF013C92
:10058C00012803D1002CF8D1043010BD002C08BF79
:04059C00052010BD69
:1005A00038B505464FF43020FFF7E8FF042847D15F
:1005B000244B254A1A60254A1A6065B99A684FF497
:1005C000DC0042F010029A60214BA5221A80FFF74E
:1005D000D5FF042834D11F4C4FF43020236843F05A
:1005E00020032360236843F040032360FFF7C6FF26
:1005F00004281DD1226841F6DF7302EA0303236059
:10060000236843F010032360114B0DB1002200E07A
:10061000A5221A804FF43020FFF7B0FF05280FD035
:100620000C4A41F6EF73116801EA0303136038BD09
:10063000052805D0226841F6DF7302EA0303236030
:1006400038BD00BF0880004023016745AB89EFCD6E
:080650000008040810800040BE
:1006580038B5FFF76FFF00280CBFA52500254FF41C
:100668003020FFF787FF042834D11B4B1B4A1C4C52
:100678001A601C4A4FF430201A60236843F02003A4
:100688002360236843F040032360FFF773FF0428C7
:1006980018D1226841F6DF7302EA03032360236856
:1006A8004FF4005043F0100323600F4B1D80FFF7F9
:1006B80061FF05280ED0226841F6EF7302EA0303B2
:1006C800236038BD052805D0226841F6EF7302EA99
:1006D8000303236038BD00BF08800040230167453D
:0C06E80010800040AB89EFCD0008040832
:1006F40010B54FF43020FFF73FFF042812D10A4C05
:100704004FF43020236843F004032360236843F04C
:1007140040032360FFF730FF226841F6FB7302EACF
:0C0724000303236010BD00BF10800040E4
:040730008182820040
:04000005200001E4F2
:00000001FF
