:020000042000DA
:08000000C00B002009000020E4
:1000080008B500230B4A0C499A188A4204D20B49B6
:10001800C95804331160F5E7094B0A4A191D043B16
:10002800934203D200221A600B1CF6E700F016F880
:1000380008BDC046900600209006002090060020CB
:08004800900600209006002044
:1000500002B4714649084900095C49008E4402BC5B
:100060007047C046F0B585B000F0B6F8504C514826
:100070005149524D524E0023237003700B702B6078
:100080003360504A13704F480378022B02D000F0BF
:10009000A3F8F8E7002323704B4B1878033809289E
:1000A0007AD8FFF7D5FF156C6F79790C1079057246
:1000B000464B286831681A6800F0BBF801E000F090
:1000C000E5F820706AE02868316800F005F9F8E783
:1000D0003E4B1F680397002702972378002B5DD1C2
:1000E00028683168354A364B884257D818681168F5
:1000F00084460191364901200F6884440198009795
:1001000067463F1ABC46009FBC4501D90F6803E013
:100110001F6813680137FF1A0298002813D1254978
:100120000B78012B02D000F057F8F8E7286829680F
:100130007B1EC918039A00F0D5F820702378DBB233
:10014000002BCAD106E01C4A1378012BEED000F038
:1001500043F8F8E70298002807D116491D4B0870AC
:100160001B6801220393029205E0134817490370AC
:100170000968029303912B68DF192F60ADE700F047
:1001800067F99EE700F069F99BE7104B2868316832
:100190001A6800F065F894E7012323702378DBB236
:1001A000002B01D001236CE7064F3B706BE7C04684
:1001B000C40B0020C80B0020CC0B0020D40B002067
:1001C000D80B0020C00B0020D00B0020E40B002037
:1001D000E00B0020E80B0020094BDB695A070ED426
:1001E000084A094B1178002907D101211170074AEB
:1001F0001A6006225A60064A9A60064A1A607047D8
:10020000002002408C0600200030004055550000C0
:10021000FF0F0000AAAA000010B5041CFFF7DCFFC6
:10022000012C04D00020042C02D0822000E0812088
:1002300010BD70B5041C0E1C151CFFF7CDFF02206D
:10024000B4420BD8002D09D02368013304D1043403
:10025000FFF7C2FFB442F7D92C600020C0B270BDD6
:10026000F8B5041C0F1C161CFFF7B6FF0220BC4299
:100270000AD8002E08D00025FFF7AEFF08CCED18F5
:10028000BC42F9D935600020C0B2F8BD10B5FFF707
:10029000A3FF00F023F901280AD100F0E3F800F0F1
:1002A000F9F8AA2000F0C4F9041C00F00DF90BE0E5
:1002B00000F0D8F800F0EEF800F080F9041E042CED
:1002C00006D100F039F9041C042C01D100F0DAF851
:1002D000201CFFF7A1FF10BD08B5FFF77DFF03202D
:1002E00008BD0000F7B5544D0191141C061CFFF722
:1002F00073FF524800F00EF9EB6814221343EB60D1
:1003000000F0B0F80F2000F005F90090042800D0AC
:100310008DE0F8231B06F218494B9A420DD8019A3A
:10032000964200D383E0301C216800F01FF90428B6
:1003300000D07BE004360434F1E7424F03230093FE
:10034000BE4274D1019A404B82439A426FD100F071
:10035000A1F83A4800F0DEF804285DD12B69202688
:1003600033432B612B6940221343F0202B610003A0
:1003700000F0D0F82B69B3432B6104284CD12B69D2
:10038000102213432B612D4800F0C4F8042843D1F8
:1003900023882A483B8000F0BDF804283CD16388BC
:1003A00026487B8000F0B6F8042835D1A38823487E
:1003B000BB8000F0AFF804282ED1E3881F48FB80F3
:1003C00000F0A8F8042827D123891C483B8100F0BD
:1003D000A1F8042820D1638918487B8100F09AF89D
:1003E0001A4B019A9A420DD1042815D1A3891348BA
:1003F000BB8100F08FF804280ED1E3890F48FB8100
:1004000000F088F8042807D12B6910229343F020CC
:100410002B61000300F07EF800F056F8074800F06A
:1004200079F800F047F8054800F074F8009000985B
:10043000FFF7F2FEFEBDC04600200240FFFF0000B5
:10044000FFFF030000F8FF1F0BF8FF1F0FF8FF1F4F
:1004500008B5FFF7C1FE002008BD08B5FFF7BCFED8
:10046000032008BD044B1A69110603D5034A5A60DC
:10047000034A5A607047C046002002402301674586
:10048000AB89EFCD024B80211A690A431A6170478C
:1004900000200240044B1A69910503D4034A9A6074
:1004A000034A9A607047C046002002402301674516
:1004B000AB89EFCD024B034A19690A401A617047B4
:1004C00000200240FFFDFFFF034B802219699201CB
:1004D0000A431A617047C04600200240034BD869A6
:1004E00006231840431E9841C0B2704700200240C6
:1004F000074B0120DA68024209D1DA680220D106EE
:1005000005D4D8680423184043425841033070474B
:100510000020024010B5041CFFF7EAFF012807D1B4
:10052000002C07D0FFF758FE013CFFF7E1FFF5E78D
:10053000002C00D1052010BDB02038B50003FFF716
:10054000E9FF051E042D0ED1074C402223691843F4
:1005500020612369B020134323610003FFF7DAFF12
:100560002369AB43236138BD00200240F7B5071C67
:10057000B020002300030E1C0193FFF7CBFF0428DB
:1005800018D10D4C01252369B0202B432361B3B250
:100590003B800003FFF7BEFF042808D10237019714
:1005A000019B360CB0201E800003FFF7B3FF2369C8
:1005B000AB432361FEBDC0460020024070B5FFF78B
:1005C0008DFF0026B04200D1AA26B0200003FFF71D
:1005D000A1FF042826D1144C2025236940222B4357
:1005E00023612369B020134323610003FFF792FFC7
:1005F000042811D12369B020AB432361236910255E
:100600002B432361094B00031E80FFF783FF05285E
:1006100008D02369AB4304E0052803D023691022E6
:100620009343236170BDC0460020024000F8FF1FC5
:1006300070B5061CB0200003FFF76CFF042820D122
:10064000104C2025236940222B4323612369B020CD
:10065000134323610003FFF75DFF04280CD12369D6
:10066000B020AB432361236910252B432361064B44
:1006700000031E80FFF74EFF052802D02369AB431D
:0C068000236170BD0020024000F8FF1F45
:040000052000005087
:00000001FF
