:020000042000DA
:08000000C00B002009000020E4
:1000080008B50E4B0E4A9A4208D20E4A0C4B0B48C2
:1000180052F8041B43F8041B8342F9D30A4B0B4ADA
:100028009A4207D213464FF00001074A43F8041BCF
:100038009342FBD300F00CF808BD00BFD4080020A1
:10004800D4080020D4080020D4080020D0080020BC
:100058002DE9F04700F0EAF84FF00003654A137005
:1000680002F10402137002F10402137002F1040297
:10007800137002F10802136002F1040213605E4D6E
:100088005E4C01E000F0D2F85A4B1B78022BF9D1F4
:100098004FF000025A4B1A7003F10C031B78A3F1BE
:1000A8000303092B00F29480DFE803F0217B8092A0
:1000B800921217920585534B186803F104031968C7
:1000C80003F10C031A6800F0D3F84D4B187083E065
:1000D80000F012F94A4B18707EE04A4B186803F199
:1000E8000403196800F022F9454B187074E0464B78
:1000F800D3F800A04FF00009414F424E49E0434B6E
:100108001A68316803F108031B6802F10102521AE8
:100118009A4203D93E4BD3F8008006E03B4B1A685D
:10012800336802F10108C3EB0808B9F1000F03D0E6
:100138002378012B09D10DE02B78012B0AD000F090
:1001480075F82B78012BFAD104E000F06FF82378CA
:10015800012BFAD13068316808F1FF33C9185246CB
:1001680000F0EAF838703B789BB9B9F1000F06D176
:100178002B70284BD3F800A04FF0010906E04FF090
:10018800000984F80090204BD3F800A0336843445A
:1001980033603B7803BB32681C4B1B689A42AED96C
:1001A8001AE000F09BF9164B187015E000F0A0F962
:1001B800134B187010E0134B186803F10403196807
:1001C80003F10C031A6800F079F80D4B187003E07E
:1001D8004FF001020A4B1A70094B1B7823B14FF0FC
:1001E8000102044B1A704FE74FF00002014B1A70DE
:1001F8004AE700BFC00B0020C80B0020CC0B002032
:10020800C40B0020D40B0020E40B0020D80B0020E6
:08021800E00B0020E80B0020C0
:10022000012804D0042814BF8220002070474FF01A
:040230008100704792
:100234000D4BDB6913F0040F14D10C4B1B786BB915
:100244004FF00102094B1A70094B45F255521A60DE
:100254004FF006025A6040F6FF729A604AF6AA22EC
:10026400034B1A60704700BF00200240D0080020F2
:040274000030004016
:10027800F8B505460E461746FFF7D8FFB54216D81B
:10028800C7B100F039F92B68B3F1FF3F0BD105F185
:100298000404FFF7CBFF2546A64204D354F8043BD9
:1002A800B3F1FF3FF5D03D604FF00000F8BD4FF0CF
:0C02B8000200F8BD4FF00200F8BD00BFCE
:1002C400F8B504460E461746FFF7B2FFB4420FD8FE
:1002D4008FB100F013F94FF00005FFF7A9FF54F8B0
:1002E400043BED18A642F8D23D604FF00000F8BD83
:0C02F4004FF00200F8BD4FF00200F8BD12
:1003000008B5FFF797FF00F009F9012806D100F0C2
:10031000F7F84FF0000000F085F907E000F0F0F882
:1003200000F0D0F9042801D100F042FAFFF778FF7D
:0403300008BD00BF45
:0C03340008B5FFF77DFF4FF0030008BD87
:1003400070B504460E461546FFF774FF00F0D8F866
:100350004FF00F0000F03EF9042840F0B58004F1A2
:1003600078425B4B9A423AD85A4B1A6942F00102E2
:100370001A611A6D42F001021A6505F1040515E0D3
:10038000012801D0042802D135F8043C238000F074
:10039000CDF8012801D0042802D135F8023C638051
:1003A00000F0C4F804F1040405F10405012801D0AB
:1003B000042809D1B442E3D3012801D0042803D191
:1003C0004FF6FF7000F006F9424B196941F6FE72D4
:1003D00011401961196D01EA02021A6574E03E4B81
:1003E0009C426CD103F10F039E426BD1394C3B4BC5
:1003F000A3603B4BA3604FF4005000F0EBF823697F
:1004000043F020032361236943F0400323614FF449
:10041000302000F0DFF8042808D1216941F6DF72AE
:1004200011402161216901EA02022261294E3369EA
:1004300043F0100333614FF4005000F0CBF82B88E9
:10044000254C23804FF4005000F0C4F86B88638083
:100450004FF4005000F0BEF8AB88A3804FF400507A
:1004600000F0B8F8EB88E3804FF4005000F0B2F8E9
:100470002B8923814FF4005000F0ACF86B89638125
:100480004FF4005000F0A6F8AB89A3814FF4005060
:1004900000F0A0F8EB89E3814FF4005000F09AF8E7
:1004A000326941F6EF7302EA03033361012801D098
:1004B000042809D14FF6FF7000F08CF804E04FF0EB
:1004C000020001E04FF00200FFF7AAFE70BD00BF7E
:1004D000FEFF0F000020024000F8FF1F23016745C8
:0404E000AB89EFCD28
:1004E40008B500F00BF84FF0010000F099F8FFF7A1
:0404F40095FE08BDAC
:0804F8004FF00300704700BF44
:10050000034B04495960044A5A6059645A6470475D
:0C0510000020024023016745AB89EFCDBD
:10051C00024BD869C0F34000704700BF0020024076
:10052C000C4BDB6813F0010F0DD10A4BDB6813F099
:10053C00040F0BD1074BD86800F0100000280CBF3B
:10054C000420032070474FF0010070474FF0020069
:08055C00704700BF00200240BF
:100564000C4BDB6813F0010F0DD10A4BDB6813F061
:10057400040F0BD1074BD86800F0100000280CBF03
:100584000420032070474FF0010070474FF0020031
:08059400704700BF0020024087
:10059C000C4BDB6C13F0010F0DD10A4BDB6C13F021
:1005AC00040F0BD1074BD86C00F0100000280CBFC7
:1005BC000420032070474FF0010070474FF00200F9
:0805CC00704700BF002002404F
:1005D40010B582B004464FF004038DF80730FFF7DE
:1005E400BFFF8DF807009DF80730012B0FD17CB1B8
:1005F400FFF71EFEFFF7B4FF8DF8070004F1FF3488
:100604009DF80730012B02D1002CF1D100E01CB978
:100614004FF005038DF807309DF8070002B010BDB8
:1006240010B504464FF43020FFF7D2FF04283FD121
:10063400204B214A9A6002F188329A601A6942F08A
:1006440020021A611A6942F040021A614FF4302004
:10065400FFF7BEFF042822D1164B196941F6DF7259
:1006640001EA02021A611A6942F010021A6124B105
:10067400124B4FF000021A8003E0104B4FF0A5021A
:100684001A804FF43020FFF7A3FF052810D0094A41
:10069400116941F6EF7301EA0303136110BD0528E4
:1006A40006D0044A116941F6DF7301EA03031361BA
:1006B40010BD00BF002002402301674500F8FF1F62
:1006C40010B5FFF729FF00280CBFA52400244FF420
:1006D4003020FFF77DFF042837D11C4B1C4A9A6059
:1006E40002F188329A601A6942F020021A611A698A
:1006F40042F040021A614FF43020FFF769FF0428EA
:100704001AD1124B196941F6DF7201EA02021A6129
:100714001A6942F010021A610E4B1C804FF400500B
:10072400FFF756FF052810D0084A116941F6EF7308
:1007340001EA0303136110BD052806D0034A1169B9
:1007440041F6EF7301EA0303136110BD0020024078
:080754002301674500F8FF1FB7
:08075C0008B5FFF739FF08BDE5
:1007640010B582B004464FF004038DF80730FFF74C
:1007740013FF8DF807009DF80730012B0DD16CB1E4
:10078400FFF70AFF8DF8070004F1FF349DF80730E6
:10079400012B02D1002CF3D100E01CB94FF005036A
:0C07A4008DF807309DF8070002B010BD72
:1007B00010B54FF43020FFF7D1FF042826D1144C98
:1007C000236943F004032361236943F04003236159
:1007D0004FF43020FFF7C2FF226941F6FB7302EAB3
:1007E00003032361042811D1236D43F0040323651F
:1007F000236D43F0400323654FF43020FFF7B2FF31
:10080000226D41F6FB7302EA0303236510BD00BFAE
:040810000020024082
:10081400184B1A6842F004001860196841F001028C
:100824001A60186840F480411960134B1A6822F06A
:10083400F0001860196841F0B0021A60186820F4DA
:10084400706119601A680C2142F4806018600B4BC7
:100854000B4800221A8023F8041C0280094A40F243
:100864004131118033F8040C81B241F4005223F871
:10087400042C70471810024004080140103801404D
:0808840014380140083801405E
:10088C000C4B10B50446188800F400518AB20AB912
:10089C00FFF7BAFF0A2C02D10D20FFF7F1FF064B30
:1008AC00188800F080018AB2002AF8D0034BA4B259
:1008BC001C8010BD0C380140003801400438014048
:0408CC00101C704745
:04000005200000587F
:00000001FF
